:100000007A0C040000000000000000000000000066
:1000100000000000000000000000000000000000E0
:1000200000000000000000000000000000000000D0
:1000300000000000000000000000000000000000C0
:1000400000000000000000000000000000000000B0
:1000500000000000000000000000000000000000A0
:100060000000000000000000000000000000000090
:100070000000000000000000000000000000000080
:100080000000000000000000000000000000000070
:100090000000000000000000000000000000000060
:1000A0009A0C0000000000000000000000000000AA
:1000B0000000000000000000000000000000000040
:1000C0000000000000000000000000000000000030
:1000D0000000000000000000000000000000000020
:1000E0000000000000000000000000000000000010
:1018F4006F882000F0FF270020A0B7001000200010
:1019040034A0B700400020004420B700CE0C0200F1
:1019140000000000D80C02000000000083FF070054
:10192400DCFF070099FF0700FEFF3700FFFF3700C9
:101730008A1F78008B1F78008C1F780020072800F4
:10174000800578001420EF0060FE07000B5822008F
:101750000C0020000AC3B30037FE07002BC0B30003
:10176000BA81200090FF070038002000578D20002C
:101770000E20ED00FEFF3A001020ED00FCFF3A00C5
:101780004F067800CF0578004F057800000006006E
:1010CC008A1F7800080037000B05780063FF0700C3
:1010DC000A0037000B05780068FF0700070037008F
:1010EC0010C0B300050037006054E100F6FF320079
:1010FC006154E100F7FF3200F9FF37004F0578002B
:04110C0000000600D9
:100E68008A1F78008B1F78001A05BE008DFE0700C8
:100E780000C0B300CF0578004F05780000000600D9
:1008AC000800FA0080442000F0418800205A200003
:1008BC00E0418800605C200010428800A05B2000B2
:1008CC00004288003022EF000000280032A2B7005E
:1008DC003062A9002EFF07000001BE00803E200000
:1008EC0001002000CCFE07000001BE00C8FE07007E
:1008FC004100DE006400400080007800600047008A
:10090C000A88BE008100E900030035001018D000F1
:10091C001090D200FBFF3700829FBE008A9FBE0062
:10092C000200BE000E0190009E0190000002EB0040
:10093C00EBFE07004F05BE004F01BE0020079800DC
:10094C00310798008A9FBE000200BE000E01900085
:10095C009E0190000002EB00B8FE07004F05BE00A0
:10096C008001780001027800600047005001D1003E
:10097C00C080D300640047003008E1002090E10003
:10098C000700310061804100E0004A0080027800DD
:10099C000103780005017800860178000200370019
:1009AC0003017800840178000280710033003A0062
:1009BC00F7FE07000001BE00803E20000100200071
:1009CC0095FE07000001BE0091FE07004100DE000D
:1009DC0000A0EC0080007800600047000A88BE0090
:1009EC008100E900030035001018D0001090D200EF
:1009FC00FBFF3700829FBE000200BE000E0190007C
:100A0C009E0190000002EB00B5FE07004F01BE00F6
:100A1C0020079800310798000200BE000E019000DC
:100A2C009E0190000002EB0084FE0700800178001C
:100A3C0001027800600047005001D100C080D30053
:100A4C00640047003008E1002090E100070031000D
:100A5C0061804100E0004A008002780001037800C8
:100A6C000501780086017800020037000301780048
:100A7C00840178003062A80000003700610051004A
:100A8C00E0805900C01188003222A90031E2A80090
:100A9C003342A80057FE070056FE07000080FA00FC
:040AAC000000060040
:0C059C0000F42100010020000000060017
:08041C00200020000000060092
:1004000038002000578D20000E20ED00FEFF3A003E
:0C0410001020ED00FCFF3A000000060088
:100424000000FA00020AB800500088000200B80078
:1004340081004200032AB800810042000080FA00D3
:0404440000000600AE
:1004EC000000FA0002000700CA020400000000002D
:1004FC000800E20002003A001000070000000600AD
:10050C00811F78000200E20002003D006000100034
:10051C00E08018000600E20002003D0060011100BE
:10052C00E0811900050007004F00E00002003B00CD
:10053C0060001000E08018000000060002000700B8
:10054C000480BE00000006006022B80006022000F5
:10055C000000D0008180D2000482D2008582D200BB
:10056C000000A8000202520083825A0003003B00E4
:10057C000202420083824A000000A1000603E90047
:10058C00F3FF3A00000006000080FA0000000600AD
:100448000000FA0002000700720204000000000029
:100458000800E20002003A00100007000000060051
:10046800839F68000200E20002003D006000100067
:10047800E08018000600E20002003D006001110063
:10048800E0811900050007004F00E00002003B0072
:1004980060001000E0801800000006006022B8002C
:1004A800060220000000D0008180D2000482D20021
:1004B8008582D2000000A8000202520083825A00FE
:1004C80003003B000202420083824A000000A100B0
:1004D8000603E900F3FF3A00000006000080FA0076
:0404E800000006000A
:080E880050C0B3000000060099
:101038008A1F78008B1F78008C1F780012003700F9
:101048000B0578008C0578008FFF07001900370022
:101058000B0578008C05780075FF07001500370030
:101068000B0578008C05780073FF07001100370026
:101078000B0578008C05780074FF07000D00370019
:1010880010C0B3000B0037006054E100ECFF3200E1
:101098006154E100EEFF320000C2B3000054E100E9
:1010A800EFFF320000C3B3000054E100F0FF32004C
:1010B800F3FF37004F067800CF0578004F0578001A
:0410C800000006001E
:100E900086FE070080442000204488000020EF00E8
:040EA0000000060048
:080E380060C0B30000000600D9
:100E40009AFE070080442000204488000020EF0024
:040E50000000060098
:100E54000DFE070080552000204488000020EF008C
:040E64000000060084
:10068C000800FA0080552000F0418800E06F20003F
:10069C00E0418800406F200010428800E05A2000A2
:1006AC00004288002022EF000000280022A2B700A0
:1006BC002062A900B6FF07000001BE00803E2000AA
:1006CC000100200054FF07000001BE0050FF07008E
:1006DC004100DE00640040008000780060004700AC
:1006EC000A88BE008100E900030035001018D00014
:1006FC001090D200FBFF3700829FBE008A9FBE0085
:10070C000200BE000E0190009E0190000002EB0062
:10071C0073FF07004F05BE004F01BE002007980075
:10072C00310798008A9FBE000200BE000E019000A7
:10073C009E0190000002EB0040FF07004F05BE0039
:10074C008001780001027800600047005001D10060
:10075C00C080D300640047003008E1002090E10025
:10076C000700310061804100E0004A0080027800FF
:10077C00010378000501780086017800020037003B
:10078C0003017800840178000280710033003A0084
:10079C007FFF07000001BE00803E2000010020000A
:1007AC001DFF07000001BE0019FF07004100DE001D
:1007BC0000A0EC0080007800600047000A88BE00B2
:1007CC008100E900030035001018D0001090D20011
:1007DC00FBFF3700829FBE000200BE000E0190009E
:1007EC009E0190000002EB003DFF07004F01BE0090
:1007FC0020079800310798000200BE000E019000FF
:10080C009E0190000002EB000CFF070080017800B5
:10081C0001027800600047005001D100C080D30075
:10082C00640047003008E1002090E100070031002F
:10083C0061804100E0004A008002780001037800EA
:10084C00050178008601780002003700030178006A
:10085C00840178002062A80000003700610051007C
:10086C00E0805900401188002222A90021E2A80052
:10087C002342A800DFFE0700DEFE07000080FA001E
:04088C000000060062
:1015A8000200FA008A1F78008A007800D000200024
:1015B80000479800A0002000104798002500370039
:1015C8000105780035FE0700290037000100780082
:1015D8001004E00008003200801F78008A9FBE00D7
:1015E800000578002DFE07004F05BE004F0078006B
:1015F8000020EC00F6FF37001D00370001007800DE
:101608001004E00008003200801F78008A9FBE00A6
:101618000005780021FE07004F05BE004F00780046
:101628000020EC00F6FF3700600047008A9FBE00EC
:101638000005780019FE07006100470000057800E2
:1016480016FE07004F05BE000900370060C0B30052
:1016580007003700605CE100D9FF3200615CE100FF
:10166800DAFF3200625CE100E4FF3200F7FF370086
:0C1678004F0578000080FA00000006001A
:100EA4008A1F78001A85FB0020448000000001009E
:0C0EB4000020EF004F0578000000060051
:100AB0000000FA002302AF0001003700FDFF3700FD
:0C0AC0002A1188000080FA0000000600E7
:100890000000FA003302AF0001003700FDFF37000F
:0C08A000AA1188000080FA000000060089
:101898008A1F78008B1F7800CB062800CA0328000F
:1018A80019FE070087C0A90097C0A8001CFE070002
:1018B80093FF07008DFF0700CACCB3006FFF070036
:1018C800EAC4B3006DFF07001420EF006BFF0700A8
:1018D8001420EF0069FF07000AC6B30067FF07007E
:0C18E800CF0578004F05780000000600D6
:101110008A1F78000B0578003EFF07004F05780016
:0811200082FE0700000006003A
:100E14001A00780040428800E20045001100780082
:100E240030428800E40045001100780050428800F8
:040E340000000600B4
:040B2C0000000600BF
:101128008A1F78003ACEB3007AFE07007EFE0700D9
:101138007DFE07001ACCB30076FE07004F05780045
:04114800000006009D
:100B1C000A85FB0040428000000001000000060036
:100B3000575320000E20ED00FEFF3A000000000099
:040B400000000600AB
:101708008A1F78001ACEB30002FD07004F05780043
:0417180000000600C7
:1016F400574123000E20ED00FEFF3A0000000000D9
:0417040000000600DB
:0816840025FD0700000006002F
:101790008A1F78008B1F78008C1F780062FE07007C
:1017A000D9FF0700D3FF0700CACCB300B5FF07007D
:1017B0004AC4B300B3FF07000801200047242400F7
:1017C0000E20ED00FEFF3A001020ED00FCFF3A0075
:1017D00055FE0700CCFF0700C6FF0700CACCB300C8
:1017E000A8FF0700EACBB300A6FF0700C1FF070070
:1017F0008BC0B3001A832000A4FF070020832000C1
:101800001080FB00F0438800F0438000C800DD003A
:10181000F1438800108320001080FB0000807000DE
:10182000F04388008000EB00A8FD070002002000C4
:1018300003D82300DFFC070000448800114488001F
:101840001BC0B300AA80200057FF0700CC842000F3
:101850000A4480001B4480003CFE07002BC0B300FC
:10186000CA84200050FF070058012000B7852500DA
:101870000E20ED00FEFF3A001020ED00FCFF3A00C4
:101880004F067800CF0578004F057800000006006D
:10168C000420EF000B14E10016003100A1812000B2
:10169C000020EF0080487800821F78008A9FBE00EF
:1016AC00FACFB3001AFD07004F05BE004F017800BA
:1016BC00A0812000104078006104E10005003A0090
:1016CC000280FB0080004500408420009048780098
:1016DC0001003700F6FF3700030007000460EC0040
:0816EC00E8FF370000000600D2
:10114C000600FA008A1F78008B1F78000000200030
:10115C004047980000002000504798000A0798006C
:10116C001B0798000E0190009E019000F0FF2F00CD
:10117C00F1FF2F000010E1000198E10005003A009A
:10118C000B8020000C05780052FE070030C0B30025
:10119C00FE00370016C0B30060004700630040003B
:1011AC001040780000E0AE000D00370060004700F2
:1011BC00630140009280FB00000820000080680062
:1011CC0000497800E1404300D0C2B300004E7800E3
:1011DC0061004600000678000142780001003700EB
:1011EC00064278000E0090009E0090006000E10026
:1011FC006088E10005003A008B8020000C05780027
:10120C0034FE07000020EF00E00037000E019000D4
:10121C009E0190000000200001F827000010E10062
:10122C000198E10005003A004B8020000C05780085
:10123C0028FE070004407800D40037008C1F78008B
:10124C008A9FBE000200200003F823000E009000CD
:10125C009E0090001AFE07000000E0000060EF0006
:10126C0001003D000060EC004F05BE004F06780009
:10127C000040E2000F0032008C1F78008A9FBE00F5
:10128C000E0090009E00900002002000031224002B
:10129C0045FE07004F05BE004F067800000798007A
:1012AC0011079800DE4090006500470061C85000AF
:1012BC00E2FF37008C1F78008A9FBE0002002000DE
:1012CC00031224000E0090009E00900031FE0700D7
:1012DC000000E0000060EF00010035000060EC0051
:1012EC004F05BE004F0678000040E2000F003200B0
:1012FC008C1F78008A9FBE000E0090009E0090000C
:10130C00D2CC2C00C3DC230027FE07004F05BE0007
:10131C004F0678000007980011079800DE409000F7
:10132C006500470061C84000E2FF370060014700DC
:10133C003200D000A280D20000079800110798005C
:10134C00600047006300400090407800F0C7B30095
:10135C0000C1500060004700E300400010C0B30023
:10136C00804878008281FB00600147001200BE00BB
:10137C008301E900030035000000D0008180D20019
:10138C00FBFF37000007980011079800600047002A
:10139C0063004000010320001080FB00008040002F
:1013AC00004E780061004600000678005E40900018
:1013BC006104E100040035005E4090006604E10029
:1013CC0001003C0006003700E0C2B300004E78007C
:1013DC00610046000006780010C0B300404798003A
:1013EC0065C0B300602CE1002C00320060004700A7
:1013FC00E30040000020EF008048780060004700C8
:10140C00B001D0002082D2008301D0000482D2002F
:10141C006001470032804100A2004A00000798009A
:10142C0011079800600147003200D000A280D20062
:10143C000007980011079800600047006300400007
:10144C00010320001080FB0000804000004E78005B
:10145C0061004600000678004E4090006004E100F8
:10146C000B003A005E4090000060ED005047980081
:10147C006004E10006003A00E0C2B300004E7800C0
:10148C00610046000006780010C0B3004047980089
:10149C0061C0520080427800D2FF3700F0FF2F006D
:1014AC00000046009040780000C3B300000CE1003F
:1014BC0003003A006100560000067800F7FF370081
:1014CC00F0FF2F000000460090407800E0C2B3000F
:1014DC00000CE10002003A006100560000067800A2
:1014EC005E4090006004E1002500320050C6B3005D
:1014FC00004E780061004600000678005E409000C7
:10150C006004E10007003D00D0C2B300004E78003B
:10151C006100460000067800DE4090006500470040
:10152C0060C81000DE4190005E4090006904E1004C
:10153C000A0036000380FB00A20020001100090005
:10154C000200D80080007800000320000100400059
:10155C00004E780061004600000678000380FB0016
:10156C00A2002000110009000200D8000003200096
:10157C0001004000004E7800610046000006780033
:10158C000020EF00004E78000020EF00CF0578001F
:0C159C004F0578000080FA0000000600F7
:100AE0000000FA000A00780000017800E1014000EF
:100AF0008B007800618045008005780011497800FE
:100B00001204E0000200320003007800F6FF370014
:0C0B10000A0078000080FA0000000600D7
:100ACC000000FA0014002000B4FE07000080FA00B9
:040ADC000000060010
:1005A8000000FA00020007004203040000000000F7
:1005B800841F7800140007004F00780011003300F2
:1005C800F0FF2F00838F6C0006003B0004056500D8
:1005D8000A00A7000800370009F0A6001000200054
:1005E80008003700820F5400838F5C000300390035
:1005F8001000200001003E000000200009F0A700C4
:100608000000EA00000006000084BE0006000700A3
:100618000083BE000485BE000280BE000200070001
:10062800844F750000000600C70ADE00F107B2001B
:10063800F50FB20008003200E1CF4200020032009C
:1006480002E0A80024000500810F700001003200BC
:100658000408050044000500810F700002003A00FC
:10066800140005008502E9000000400081C0480030
:10067800FCFF3B0002E0A800240005000080FA000F
:040688000000060068
:100BB4000000FA0002000700F00604000000000034
:100BC400889FBE008A9FBE008C1F780030000700FB
:100BD4003700330003866C006450E10024003200C7
:100BE4006420E100270032006150E100220032005D
:100BF4006120E100210032008B854200EB07B10047
:100C04000134B800003AB8000804420089844A005C
:100C1400013AB8000030B8008880400009014A0059
:100C240004003300000040008180480002014900B4
:100C34008B05E900C909DD00830170000100320061
:100C440013002000C814DE004814DD004709DE004C
:100C54001200B200C808DE000884700024000700F7
:100C640001F0A1000CF0A70003E0A8001900370070
:100C74006120E1001B0032000881BE000280BE003A
:100C8400F7FF37006150E100FCFF3A001500370020
:100C94000084BE003C0007000083BE000485BE0043
:100CA4000280BE0038000700844F75000000060073
:100CB4000280BE006450E100050036006420E100BB
:100CC400020036000968A30001003A000880BE0053
:100CD40002C0A8004F0678004F05BE004F04BE00B6
:100CE40000000600F0FF2F00F1FF2700F9FF370096
:100CF40081002000618055000B003D000B002000A6
:100D040061FE2F000100E1001D00340082817100AA
:100D1400610164008904D1000884D3000000E80064
:100D2400FAFF3A00710020006100640003007000C3
:100D3400020060000900320061044400E0844C00B9
:100D44000988A500050032008B05E8006808E10069
:100D540002003A008904D1000884D300F20F200075
:100D64000258E10005003D00C75DDD00F907B2004F
:100D74008980750008008800000006000BF8270031
:100D84001B00880000000500C70ADE00F107B2005E
:100D9400F50FB20008003200E1CF42000200320039
:100DA40002E0A80024000500810F70000100320059
:100DB4000408050044000500810F700002003A0099
:100DC400140005008502E9000000400081C04800CD
:100DD400FCFF3B0002E0A800240005000080FA00AC
:040DE4000000060005
:100BA0000000FA00F4FF2F007FFE07000080FA002B
:040BB000000006003B
:100ECC000000FA00020007001808040000000000EF
:100EDC000400E20006003A000005EB000200E2000C
:100EEC000F003E000000E200270032000C0037002B
:100EFC00A10088000200E2000400350008003C005C
:100F0C000000E200200032000500370060001000F5
:100F1C00E080180002003B0001F02C001A003700A2
:100F2C000084BE006011B8006B0920000982CF005C
:100F3C00020039000882CF000441B000694252001F
:100F4C000E00320008003B008281710061016400D8
:100F5C008904D1000884D3008B05E8000442E80022
:100F6C00F9FF3A00050037000804440089844C005E
:100F7C008B05E9000442E900FBFF3A00030007007F
:100F8C000AF0A70003E0A800000006008100200082
:100F9C00618055000B003D000B00200061FE2F000E
:100FAC000100E1001D0034008281710061016400C8
:100FBC008904D1000884D3000000E800FAFF3A004D
:100FCC0071002000610064000300700002006000EA
:100FDC000900320061044400E0844C000988A5003B
:100FEC00050032008B05E8006808E10002003A00B9
:100FFC008904D1000884D300F20F20000258E100CC
:10100C0005003D00C75DDD00F907B2008980750061
:10101C0008008800000006000BF827001B00880061
:0C102C00000005000080FA000000060033
:10199C000A8020000B002000420009000B1D78007B
:0419AC000000060031
:1019B00001802000000028001C000900B0187800F9
:0819C000B05878000000060099
:101934003400F8003600F800801F780020002000F2
:101944000C000900B01F78008A1F78008B1F7800F4
:1019540087C0AE0007003700CCFF0700B18320002A
:10196400804878001BC0B300004578006AFF070078
:1019740087C0A900CF0578004F057800A00120009A
:101984000C0009004F1078004F0078003600F90071
:081994003400F90000400600D8
:081890008BFD070000000600BB
:0C0EC0003142800001000100000006002B
:100DFC000000FA0000000000000000002682BF0086
:080E0C000080FA00000006005E
:100DE8000000FA002282BF00610060000080FA0063
:040DF80000000600F1
:100B5C000000FA000020EF002302AF000020EC00A0
:080B6C000080FA000000060001
:100B44000000FA0000000000000000003682BF0030
:080B54000080FA000000060019
:100B8C000000FA003282BF00610060000080FA00B1
:040B9C00000006004F
:100B74000000FA000020EF003302AF000020EC0078
:080B84000080FA0000000600E9
:10171C00408420000A487800A08120000B48780003
:04172C0000000600B3
:020000040001F9
:080000004E6100004E000000FB
:08000800494E00004600000013
:0400100030000000BC
:1000140020540000656D00007065000072610000EE
:100024007475000072650000203A00002000000092
:10003400002000002D2D00002D2000005379000029
:1000440073740000656D0000206900006E69000093
:10005400742000002D2D00002D2000000000000061
:10006400000000000000000000000000000000008C
:040074000000000088
:10007800FFFF0000FFFF0000FFFF0000FFFF000080
:10008800FFFF0000FFFF0000FFFF0000FFFF000070
:10009800FFFF0000FFFF0000FFFF0000FFFF000060
:1000A800FFFF0000FFFF0000FFFF0000FFFF000050
:1000B800FFFF0000FFFF0000FFFF0000FFFF000040
:1000C800FFFF0000FFFF0000FFFF0000FFFF000030
:0C00D80048040000A2050000C60500005E
:0800E40080250000000000006F
:0200000401F009
:20000000CF000000CF00000007000000A2000000850000007F000000E7000000C1000000ED
:00000001FF
