:020000040800F2
:10000000FCFF0020011500007916000079160000A1
:1000100079160000791600007916000079160000A4
:100020007916000079160000791600007916000094
:100030007916000079160000791600007916000084
:100040007916000079160000791600007916000074
:100050007916000079160000791600007916000064
:100060007916000079160000791600007916000054
:100070007916000079160000791600007916000044
:100080007916000079160000791600007916000034
:100090007916000079160000791600007916000024
:1000A0007916000079160000791600007916000014
:1000B0007916000079160000791600007916000004
:1000C00079160000791600007916000079160000F4
:1000D00079160000791600007916000081160000DC
:1000E00079160000791600007916000079160000D4
:1000F00079160000791600007916000079160000C4
:1001000079160000791600007916000079160000B3
:1001100079160000791600007916000079160000A3
:100120007916000079160000791600007916000093
:100130007916000079160000791600007916000083
:100140007916000079160000791600007916000073
:1001500081B0194900EA0101084600220EE004209E
:1001600022E0082020E010201EE020201CE040209B
:100170001AE0802018E040F2001015E00F49884294
:10018000EDD00F498842ECD00E498842EBD00E49A1
:100190008842EAD00D498842E9D00D498842E8D02A
:1001A0000C498842E7D010460B49096841EA000231
:1001B00009490A6001B0704700FCFFFF00080140D8
:1001C000000C0140001001400014014000180140E3
:1001D000001C0140002001401810024081B0CDF801
:1001E00000E08CB21546774B00EA03031E46184622
:1001F000FFF7AEFFB4F1FF0F0CD1734B9D4203D15B
:100200004FF033333360D9E0422D03D14FF0443304
:100210003360D3E04FF6FF739C4214D16A4B9D428A
:1002200007D14FF033333360341D4FF03333236045
:10023000C4E0422D07D14FF044333360341D4FF0FA
:1002400044332360BAE00021002005F001030BB124
:1002500000211DE005F0020333B105F4C0730BB1BA
:10026000082100E0042113E005F0040333B105F098
:1002700020030BB1042100E0002109E005F0080390
:1002800033B105F020030BB10C2100E00821FFE79A
:100290004E4B05EA03030BB1032009E005F400739C
:1002A0000BB1022004E005F480630BB10120FFE7ED
:1002B00005F00C030BB10143FFE704F0FF039BB211
:1002C000002B3BD0376800201FFA84F832462E46B8
:1002D00008282CD24FF0010303FA00F408EA0403C3
:1002E000A34222D185004FF00F03AB40DB4307EA66
:1002F000030401FA05F344EA03031D4606F481737F
:10030000B3F5817F05D102F214044FF0010383405D
:10031000236006F08203822B05D102F210044FF015
:100320000103834023602F46FFE7401CD0E717609E
:100330001FFA88F00F463146164602E00F4629465E
:10034000A0B2B0F1FF0F39D9331DD3F800800022DD
:10035000082A30D202F208044FF0010303FA04F431
:1003600000EA0403A34224D195004FF00F03AB40F1
:10037000DB4308EA030807FA05F348EA030801F437
:100380008173B3F5817F07D106F2140502F20804E8
:100390004FF00103A3402B6001F08203822B07D1B1
:1003A00006F2100502F208044FF00103A3402B608F
:1003B000FFE7521CCCE7331DC3F80080DDF800E0F6
:1003C00001B0704700FCFFFF14000800000808009F
:1003D00001480068704700BF7C00002083B0CDF862
:1003E00000E000F0FF031A09104603F00F02134665
:1003F00014E0194A02921FE0184A02921CE0184ABF
:10040000029219E0174A029216E0174A029213E08C
:10041000164A029210E0164A02920DE00028E8D037
:100420000128E9D00228EAD00328EBD00428ECD038
:100430000528EDD00628EED0012212B29A40ADF880
:10044000042002980A46BDF80410FFF7C7FEDDF845
:1004500000E003B0704700BF00080140000C0140FD
:10046000001001400014014000180140001C014030
:100470000020014082B0CDF800E00346194601910A
:10048000FFF7A6FF40F2E83100FB01F201990A6094
:100490001F490978C1F30311C8B21E490918087829
:1004A000C0B21A1D1968C140116019490988C1F309
:1004B000022188B2174909180878C0B203F208026D
:1004C000191D0968C140116011490988C1F3C22191
:1004D00088B2104909180878C0B203F20C02191D3D
:1004E0000968C14011600A490988C1F3813188B2A5
:1004F000094909180978C8B203F2100203F20C0185
:100500000968B1FBF0F11160DDF800E002B070475E
:1005100004100240871800005C0A000081B0CDF88A
:1005200000E0012252B23E490A6000F268010B6805
:100530006FF0006103EA0102144603F00061C90E86
:100540000B4602F00041B1F1004F02D135490A6873
:1005500001E035490A6804F47021090C0E464FF693
:10056000FF7104EA01010D4604F44011B1F5401F8A
:100570000DD16FF0706102EA01010E462A490A6846
:100580006FF070610A4028490A60324616E004F4B0
:100590008011B1F5801F09D14FF00301B140C9436B
:1005A00002EA010141F070610A4607E0610D0901AC
:1005B00005FA01F1C9430A4042F070622BB1610DA6
:1005C000090105FA01F10A43FFE704F00041B1F126
:1005D000004F02D113490A6001E013490A6040F25A
:1005E000000A81464FEA8A0109EB01010968B1F16D
:1005F000FF3F10D009F134014FEA8A03C918096896
:100600000A4609EB0301096808461146FFF7E6FEB2
:100610000AF1010AE6E7DDF800E001B0704700BF2B
:10062000000342421C0001400400014081B0ADF8CB
:1006300000100146BDF800000B68C3F3C01202B9F8
:10064000FAE70A1D106001B07047FFFF89B0CDF8CE
:1006500000E0834698B28C46BDF824100A9E04AC94
:10066000ADF80410ADF808002046FFF703FFBDF811
:100670000800BDF80410644CA34512D101256DB2E9
:10068000624C2560624D634C2560634D634C256070
:10069000634D644C2560644D644C2560079C039455
:1006A00056E0634CA34512D101256DB2614C256023
:1006B000614D584C2560614D584C2560604D594C3A
:1006C0002560604D594C2560069C039440E05E4CCB
:1006D000A34512D101256DB25C4C25605C4D4D4C9B
:1006E00025605C4D4D4C25605B4D4E4C25605B4D4F
:1006F0004E4C2560069C03942AE0594CA34512D128
:1007000001256DB2574C2560574D424C2560574D21
:10071000424C2560564D434C2560564D434C256058
:10072000069C039414E0544CA34511D101256DB2ED
:10073000524C2560524D374C2560524D374C256048
:10074000514D384C2560514D384C2560069C039422
:10075000ADF80410ADF808003046FFF7DFFEBDF835
:100760000800BDF804100BF1100500242C600BF1FB
:1007700010052C680C432C600BF10C0500242C6038
:1007800018B140F4806080B2FFE70BF10C052C68D3
:1007900004432C600BF10C060125346865F34D34DD
:1007A00034600BF10C060125346865F3C304346032
:1007B0000BF10C060125346865F3820434600BF1FB
:1007C000140500242C60039D192465434FEA8C0412
:1007D000B5FBF4F76424B7FBF4F42601350964246F
:1007E0006C433C1B240104F232056424B5FBF4F491
:1007F00004F00F0446EA04040BF10805A4B22C60CF
:10080000DDF800E009B0704700380140380342428B
:100810006909000080000020C50900008400002054
:10082000DD09000088000020790B00008C0000200A
:1008300000440040C403424219090000610B00005B
:10084000490B0000C10B000000480040C8034242B1
:10085000E1080000A90B0000910B0000310B000023
:10086000004C0040CC034242FD080000D10A0000C9
:10087000B90A0000A10A000000500040D003424223
:10088000C5080000190B0000010B0000E90A000078
:1008900081B0CDF800E0019D2C4610B408B493B2AD
:1008A0008AB201460348FFF7D1FE02B0DDF800E04E
:1008B00001B070470044004081B00168C1F34010AE
:1008C00001B0704781B0CDF800E081B20348FFF776
:1008D000ADFEDDF800E001B0704700BF0050004001
:1008E00081B0CDF800E081B20348FFF79FFEDDF84C
:1008F00000E001B0704700BF0048004081B0CDF873
:1009000000E081B20348FFF791FEDDF800E001B09E
:10091000704700BF004C004081B0CDF800E081B2CC
:100920000348FFF783FEDDF800E001B0704700BF29
:100930000044004081B00168C1F3801001B07047ED
:1009400081B0CDF800E0019D2C4610B408B493B2FC
:100950008AB201460348FFF779FE02B0DDF800E0F5
:1009600001B070470048004081B0CDF800E081B28E
:100970000348FFF75BFEDDF800E001B0704700BF01
:100980000038014081B0CDF800E0019D2C4610B444
:1009900008B493B28AB201460348FFF757FE02B08B
:1009A000DDF800E001B070470038014081B0026816
:1009B000C2F3401101B9FAE7011D096888B201B01C
:1009C0007047FFFF81B0CDF800E00348FFF7EEFF6E
:1009D000DDF800E001B070470038014081B0CDF88B
:1009E00000E00348FFF768FFDDF800E001B0704762
:1009F0000038014081B010B5904208BF2AE040EABB
:100A000002044FEA4404002C08BF23E0440004D150
:100A1000944201D4A41C012C1CE04FEA40044FEA8C
:100A20001464FF2C0AD14FEA42044FEA1464FF2CED
:100A300004D14FEAD274B4EBD0340BE0002A06D4D0
:100A4000002802DC0024012C04E0904202E000288F
:100A500048BF8242BDE8104001B07047020406085A
:100A600042F6DF67C0F200077F1EFDD100BF00BF66
:100A700000BF00BF00BF704781B0009101460098E1
:100A80000B461C465A1C15460346421C10461A7853
:100A9000227022780AB12B46F3E7084601B070476E
:100AA00081B0CDF800E00348FFF744FFDDF800E037
:100AB00001B07047004C004081B0CDF800E0034821
:100AC000FFF7FAFEDDF800E001B07047004C00408F
:100AD00081B0CDF800E00348FFF768FFDDF800E0E3
:100AE00001B07047004C004081B0CDF800E00348F1
:100AF000FFF720FFDDF800E001B070470050004034
:100B000081B0CDF800E00348FFF7D6FEDDF800E045
:100B100001B070470050004081B0CDF800E00348BC
:100B2000FFF744FFDDF800E001B0704700500040DF
:100B300081B0CDF800E00348FFF7FCFEDDF800E0EF
:100B400001B070470048004081B0CDF800E0034894
:100B5000FFF7B2FEDDF800E001B07047004400404E
:100B600081B0CDF800E00348FFF720FFDDF800E09A
:100B700001B070470044004081B0CDF800E0034868
:100B8000FFF7D8FEDDF800E001B070470038014003
:100B900081B0CDF800E00348FFF78EFEDDF800E0FD
:100BA00001B070470048004081B0CDF800E0034834
:100BB000FFF7FCFEDDF800E001B0704700480040A0
:100BC00081B0CDF800E00348FFF7B4FEDDF800E0A7
:100BD00001B070470044004081B0CDF800E00178DA
:100BE000CCB2A0B2034C2468A0470020DDF800E09E
:100BF00001B070477800002081B0CDF800E00949CD
:100C000002B440F2000340F2000240F20001FFF79C
:100C10003FFE01B0044A05490A600020DDF800E00B
:100C200001B0704714170000190900007800002077
:100C30007047FFFF026806490A60011D0A680549FE
:100C40000A6000F208010A6803490A60704700BFA1
:100C500090000020940000209800002081B0CDF882
:100C600000E0094902B440F2000340F2000240F201
:100C70000001FFF787FE01B0044A05490A60002021
:100C8000DDF800E001B0704780170000690900003E
:100C90007800002081B0CDF800E00B4D00F20C018F
:100CA0000C6800F208010B68011D0A68016808461B
:100CB00091B29AB2A3B220B4FFF7EAFD01B00020CE
:100CC000DDF800E001B070471417000081B0CDF8E6
:100CD00000E00B4D00F20C010C6800F208010B68FB
:100CE000011D0A680168084691B29AB2A3B220B405
:100CF000FFF726FE01B00020DDF800E001B07047EC
:100D0000A816000081B0CDF800E0094902B440F215
:100D1000000340F2000240F20001FFF7B9FD01B00C
:100D2000044A05490A600020DDF800E001B0704780
:100D300014170000190900007800002081B0CDF8D8
:100D400000E0094902B440F2000340F2000240F220
:100D50000001FFF7F5FD01B0044A05490A600020D3
:100D6000DDF800E001B07047A8160000E1080000BF
:100D70007800002081B0CDF800E0034C2468A04743
:100D8000DDF800E001B070479000002083B0CDF89E
:100D900000E0024610460D228DF808200A228DF848
:100DA00009201FE0FFF718FF23E002782AB1019025
:100DB000FFF712FF0198401CF7E71AE002782AB10A
:100DC0000190FFF709FF0198401CF7E702AA1046BF
:100DD000FFF702FF0DF109021046FFF7FDFE08E0E4
:100DE000062007E00029DDD00129DED00229E5D068
:100DF000F6E70020DDF800E003B0704784B0CDF8DE
:100E000000E002908DF80C1000228DF804209DF86F
:100E10000C309DF804209A421AD200230E4A137017
:100E2000FF20FFF7A7FF0C4A1278012A07D19DF88F
:100E30000430029AD318094A12781A7000E0F2E7D7
:100E400000F08EF89DF80420521C8DF80420DEE797
:100E5000DDF800E004B070473A0000203B000020BD
:100E600081B0042806D11949096841F48032174934
:100E70000A6028E0052806D11449096841F40032C7
:100E800012490A601FE0062806D11049096841F49A
:100E900080220E490A6016E00F2806D10C49096825
:100EA00041F002020A490A600DE010280BD3A0F2BB
:100EB000100461098A0007498B1804F01F024FF0E3
:100EC00001019140196001B0704700BF24ED00E0BE
:100ED00010E000E000E100E081B0002808BF0FE072
:100EE00002B54FF09E0202D4521E4000FCD5803065
:100EF0002CBF521C4000400A40EAC250BDE80240EC
:100F000001B0704781B0CDF800E0FFF733FFDDF8A6
:100F100000E001B07047FFFF81B0CDF800E0E120B4
:100F2000FFF728FFDDF800E001B0704781B0CDF891
:100F300000E009E00846FFF7C9FE0AE00846FFF7AF
:100F4000A9FE06E0012004E00028F3D00128F5D036
:100F5000F8E7DDF800E001B07047FFFFFFFFFFFF9B
:100F60004DF2BF47C0F201077F1EFDD100BF00BF99
:100F700000BF00BF00BF704781B0CDF800E011E0B6
:100F80000846FFF7DBFE16E00846FFF7BBFE12E05F
:100F90000846FFF763FE0EE00846FFF72DFE0AE065
:100FA000012008E00028EBD00128EDD02028EFD068
:100FB0003028F1D0F4E7DDF800E001B07047FFFF22
:100FC00081B0CDF800E003460846FFF733FE18462F
:100FD000FFF72EFEDDF800E001B0704781B0CDF8DC
:100FE00000E0044C2468A047C0B2DDF800E001B086
:100FF000704700BF9400002081B0CDF800E0E320EE
:10100000FFF7B8FEFFF72CFDFFF72AFDC120FFF721
:10101000B1FEDDF800E001B07047FFFF81B0FAB526
:1010200090EA02064CBF4FF000464FF000064FEA30
:1010300000214FEA40031B0E12BF41F000414FF068
:1010400000002CE0FF2B26D04FEA02244FEA420595
:101050002D0E12BF44F000444FF000001FE0FF2DA2
:1010600019D05B19A1FB0454002C5CBF64005B1E0B
:10107000803424BF5B1C64087E3BDCBF4FF0000063
:101080000DE0FF2B07D24FEA142030F4000040EAB5
:10109000C350304303E0FF27FF0546EA0700BDE8E1
:1010A000FA4001B07047FFFF82B0CDF800E0024681
:1010B0000C460020002149B20192019AB2F1FF3F93
:1010C00006D1714A11462046FFF7D6FC0320D7E02F
:1010D000012501AAD21C127802F08002D2B272B1AC
:1010E00001AAD31C1A7882F080021A706A1CD3B24B
:1010F0002D222270621C1446DEB2A24601E0A246F6
:10110000EEB2019A32B9614A11465046FFF7B4FC7B
:101110000020B5E0019AB2F1FF4F06D15C4A1146BA
:101120005046FFF7A9FCF0B2AAE05FFA80F94FFA47
:1011300081F8019A4FF07E50FFF75CFC40F200000E
:1011400000DD012048B1019A5248FFF767FF019086
:10115000A8F101084FFA88F8EBE7019A4D48FFF72C
:1011600049FC40F2000000DC012048B1019A4A48E5
:10117000FFF754FF019008F101084FFA88F8ECE7F7
:10118000019A5200019201AAD21C12787F3AD0B281
:1011900001AAD31C01221A70019A8240019201AA6D
:1011A000D21C127830328AF800200AF10100B8F11E
:1011B000010F06DBB8F1060F03DC05465FFA89F183
:1011C00003E02E220270451C012106204FFA88F40C
:1011D00000B301AAD31C00221A70019A9300019A4D
:1011E000D2180192019A5200019201AAD21C1278DF
:1011F00030322A706D1C51B9621E52B253B222B9FC
:101200002E222A706D1C0121FFE75CB2FFE7401E11
:10121000C0B2DDE7294660B24A1E1278302A01D1F9
:10122000491EF9E74A1E12782E2A01D1491EFFE70E
:1012300010B365220A70491C002806DA2D220A70B4
:10124000491C424250B243B200E043B2D8B2DAB2D3
:10125000092A07D90A22B0FBF2F2D2B230320A7060
:10126000491CFFE70A23B0FBF3F203FB1202D2B2E0
:1012700030320A70481C00E008460022027000204C
:10128000DDF800E002B0704730000020340000209C
:101290003600002000002041CDCCCC3DFFFFFFFFF9
:1012A00081B0CDF800E00E4801460020FFF73EFE79
:1012B00042F280512020FFF75FFE0A480221FFF72B
:1012C00065FD44F67F77C0F212077F1EFDD100BF97
:1012D00000BF00BF00BF00BFDDF800E001B07047F5
:1012E000981800001A000020024A1070024A11707B
:1012F000704700BF3B0000203A00002081B01CF87E
:10130000019B0BF8019BBBEB0A0FF8D101B07047B2
:1013100081B04FF000094FF0000CBDEB0A0F04DC68
:10132000BDEB0B0F01DBD446EA464BF8049BBBEB4D
:101330000A0FFAD1BCEB0A0F05DDE246D9F800B07E
:101340000BF1040BF1E701B07047FFFF81B01548C6
:10135000006840F00101134801601349134801601F
:1013600010480168124801400E4801600D480168AC
:101370006FF4802001400B4801600C4801686FF455
:10138000FE00014009480160064801686FF0A05066
:101390000140044801604FF000010648016001B0BF
:1013A000704700BF001002400000FFF00410024030
:1013B000FFFFF6FE2C10024081B0CDF800E0FFF7F1
:1013C0001BFEFFF7A9FDFFF7CBFDCC20FFF79AFD31
:1013D0004420FFF797FD45F23F47C0F2890700BF61
:1013E00000BF7F1EFDD100BF00BF00BFFFF704FE9E
:1013F000FFF792FDFFF7B4FDCC20FFF783FDBE2081
:10140000FFF780FDFFF7ACFD08211B48FFF7F6FC56
:101410001A4800781A4A108010460088010289B2E2
:1014200011801548007841EA000080B21080FFF773
:1014300053FD4FF07652FFF7F1FD12490860124854
:101440000121FFF7A3FC0F4800681049FFF72CFEAD
:1014500002210E48FFF79AFC41F6FF27C0F2B707BA
:101460007F1EFDD100BF00BF00BF00BF00BFDDF881
:1014700000E001B0704700BF000000200100002024
:101480003C000020400000200A0000204400002012
:1014900081B0CDF800E0FFF7A1FDDDF800E001B07C
:1014A0007047FFFF81B0CDF800E012491248FFF706
:1014B00087FD012149B21148016040F23700FFF772
:1014C000CFFCFFF799FDFFF727FDFFF749FDCC2083
:1014D000FFF718FD4E20FFF715FD0020FFF712FD66
:1014E0000020FFF70FFD6020FFF70CFDDDF800E0A6
:1014F00001B07047A8180000EC17000094010942E1
:1015000000F00EF800F016FA00F0ACF800F0D2F996
:10151000FFF7C6FEFFF7C6FFFFF74EFFFCE7FEE74B
:1015200081B0CDF800E0464A464B474C47494BF660
:101530008030814206D94648006840F002014448A4
:10154000016011E045F6C050814206D9404800686C
:1015500040F001013E48016006E03D4801686FF03F
:10156000070001403A480160FFF7F0FE3948036088
:1015700039480460394802EA00013948016002F044
:10158000010040B119463648006800F0020000280A
:1015900000D1F8E700E0194602F4803040B10B4674
:1015A0002F48006800F40030002800D1F8E700E080
:1015B0000B4602F0805068B12948006840F0805125
:1015C000274801602648006800F00050002800D13C
:1015D000F8E7FFE702F0806078B12148006840F04A
:1015E00080611F48016011461A461D48006800F0DE
:1015F0000060002800D1F8E701E011461A4601F02A
:10160000807070B11648006840F080711448016025
:1016100011461348006800F0007000B9F9E70A4667
:10162000FFE70C48006800F00C01900000F00C008F
:10163000814200D0F5E7DDF800E001B0704700BF5F
:101640008100010502841D004406010040190100CB
:1016500000200240041002402C100240FFFF0F0047
:101660000010024081B002490248016001B0704799
:10167000401901007C00002081B0FEE701B07047F6
:101680004DF8044D81B0CDF800E0FFF701FF0549AA
:1016900008700121FFF728FEDDF800E001B05DF8D9
:1016A000044B70473E000020380000003900000065
:1016B000FFFFFFFF0000000000000000000000002E
:1016C000000000000000000000000000000000001A
:1016D00000000000000000000000000018080000EA
:1016E00018000000000000000000000000000000E2
:1016F00000000000000000000000000000000000EA
:1017000000000000000000000000000000000000D9
:10171000300014083500000036000000FFFFFFFF16
:1017200000000000000000000000000000000000B9
:1017300000000000000000000000000000000000A9
:101740000000000000000000180800001800000061
:101750000000000000000000000000000000000089
:101760000000000000000000000000000000000079
:101770000000000000000000000000000800000859
:10178000090000000A000000FFFFFFFF000000004A
:101790000000000000000000000000000000000049
:1017A0000000000000000000000000000000000039
:1017B00000000000180800001800000000000000F1
:1017C0000000000000000000000000000000000019
:1017D0000000000000000000000000000000000009
:1017E000000000000000000004000000FFFFFFFFF9
:1017F000FFFFFFFFFFFFFFFFFFFFFFFFFFFFFFFFF9
:10180000FFFFFFFFFFFFFFFFFFFFFFFFFFFFFFFFE8
:10181000FFFFFFFFFFFFFFFFFFFFFFFFFFFFFFFFD8
:10182000FFFFFFFFFFFFFFFFFFFFFFFFFFFFFFFFC8
:10183000FFFFFFFFFFFFFFFFFFFFFFFFFFFFFFFFB8
:10184000FFFFFFFFFFFFFFFFFFFFFFFF00000000A4
:101850000000000000002054656D706572617475B1
:101860007265203A2000202D2D2D20537973746548
:101870006D20696E6974202D2D2D20004E614E0063
:101880003000494E46000000000000010203040140
:1018900002030406070809FF80250000000000007D
:1018A0000000000000000000E1080000A90B00009B
:1018B000910B000000B5DFF814B0DFF814A0DFF8DA
:1018C00014C0FFF71BFD00BD704700BF00000020E3
:1018D0003B0000204C180000FFFFFFFFFFFFFFFF51
:1018E000FFFFFFFFFFFFFFFFFFFFFFFFFFFFFFFF08
:1018F000FFFFFFFFFFFFFFFFFFFFFFFFFFFFFFFFF8
:10190000FFFFFFFFFFFFFFFFFFFFFFFFFFFFFFFFE7
:10191000FFFFFFFFFFFFFFFFFFFFFFFFFFFFFFFFD7
:10192000FFFFFFFFFFFFFFFFFFFFFFFFFFFFFFFFC7
:10193000FFFFFFFF00B5DFF810B0DFF810A0FFF7E2
:10194000E7FC00BD704700BF000000209C000020A5
:00000001FF
