:10000000FCFF0220A9150000311600003116000087
:1000100031160000311600003116000031160000C4
:1000200031160000311600003116000031160000B4
:1000300031160000311600003116000031160000A4
:100040003116000031160000311600003116000094
:100050003116000031160000311600003116000084
:100060003116000031160000311600003116000074
:100070003116000031160000311600003116000064
:100080003116000031160000311600003116000054
:100090003116000031160000311600003116000044
:1000A0003116000031160000311600003116000034
:1000B0003116000031160000311600003116000024
:1000C000311600003116000031160000F91500004D
:1000D0003116000031160000311600003116000004
:1000E00031160000311600003116000031160000F4
:1000F00031160000311600003116000031160000E4
:1001000031160000311600003116000031160000D3
:1001100031160000311600003116000031160000C3
:1001200031160000311600003116000031160000B3
:1001300031160000311600003116000031160000A3
:100140003116000031160000311600003116000093
:100150003116000031160000311600003116000083
:100160003116000031160000311600003116000073
:100170003116000031160000311600003116000063
:100180003116000031160000311600003116000053
:080190003116000031160000D9
:1015A80000F046F800F00EF800F020FC00F0D6FA43
:1015B80000F0DCFBFFF7FAFEFFF71CFFFFF74CFF1C
:0415C800FCE7FEE757
:1015940081B01CF8019B0BF8019BBBEB0A0FF8D13F
:0415A40001B07047DB
:1015440081B04FF000094FF0000CBDEB0A0F04DC32
:10155400BDEB0B0F01DBD446EA464BF8049BBBEB17
:101564000A0FFAD1BCEB0A0F05DDE246D9F800B048
:0A1574000BF1040BF1E701B0704722
:1013B40081B0CDF800E00E4801460020FFF71AFE88
:1013C40042F280511020FFF733FE0A480221FFF752
:1013D40053FE40F6FE07C0F23D0700BF00BF7F1E6C
:1013E400FDD100BF00BF00BFDDF800E001B07047D1
:0813F400581D00000000FF1F5E
:100FF80081B0CDF800E00DE00846FFF7F3FD10E002
:101008000846FFF751FF0CE00846FFF7BBFE08E073
:10101800012006E00028EFD00128F1D00228F3D003
:0A102800F6E7DDF800E001B07047C4
:100BEC0081B0CDF800E00D4D00F20C0109688CB21B
:100BFC0000F2080109688BB2011D09688AB201680C
:100C0C00084691B29AB2A3B220B4FFF785FF01B0A7
:100C1C000020DDF800E001B0704700BFE41B0000CD
:100B240081B0CDF800E09FB203468DB296B2DDF8F5
:100B340004800848FFF754FE4446AAB21946B3B2EB
:100B4400044810B480B4FFF7F1FE02B0DDF800E011
:080B540001B0704700C006402B
:1007E40081B0304988420CD12F4A30490A60304ADE
:1007F40030490A60304A31490A60314A31490A6055
:100804004EE0314988420CD1304A28490A60304AC6
:1008140028490A602F4A29490A602F4A29490A604F
:100824003EE02E4988420CD12D4A20490A602D4AC7
:1008340020490A602C4A21490A602C4A21490A604D
:100844002EE02B4988420CD12A4A18490A602A4AC8
:1008540018490A60294A19490A60294A19490A604B
:100864001EE0284988420CD1274A10490A60274AC9
:1008740010490A60264A11490A60264A11490A6049
:100884000EE0254988420BD1244A08490A60244ACB
:1008940008490A60234A09490A60234A09490A6047
:1008A40001B0704700A00640C90900008000FF1F86
:1008B400490C00008400FF1F2D0C00008800FF1F5E
:1008C400810E00008C00FF1F00B00640910900005B
:1008D400F10E0000510D0000150E000000C006408E
:1008E400AD090000990E0000C10C0000190D0000B4
:1008F40000D006405D0A0000910C0000A90C000025
:10090400610C000000A00E40B10A0000790C000048
:10091400D90C0000510E000000B00E40CD0A0000BA
:0C092400690E0000090F0000210F000008
:1009300085B0CDF800E001900291ADF80C20ADF843
:100940001030BDF81440ADF814400698FFF7DAFEF9
:100950000198FFF759FE02990198FFF7F9FEBDF8DB
:100960000C100198FFF7BEFEBDF810100198FFF7BC
:100970009DFEBDF814100198FFF740FE0198FFF7A7
:1009800035FE0198FFF78AFEDDF800E005B07047FC
:1007040081B0CDF800E040F2000C83464FEA8C0142
:100714000BEB01010968B1F1FF3F12D00BF1340179
:100724004FEA8C03C91809680A460BEB03010968F0
:1007340008461146FFF72CFF0CF1010C1FFA8CFC44
:0A074400E4E7DDF800E001B07047C3
:1005940082B0CDF800E080464FEA581202F007021C
:1005A400914608F01F04A24693010D4AD3184FF058
:1005B4000102A240019218460A460199FFF79EFFE4
:1005C4004FEA0933074AD3184FEA8A029C1808F401
:1005D400E06322681A432260DDF800E002B070474D
:0805E40000F00F4000900440FC
:1005000081B0CDF800E0FFF79BFFDDF800E001B01F
:02051000704732
:1004400083B0CDF800E006460C4615463046FFF76F
:10045000DFFF40F2FF1306EA030080090026224670
:100460002946202E39D24FF0010303FA06F402EA9E
:1004700004031F46A3422ED104031A4B1C19B300D8
:10048000E51801952C68184B04EA03032B60174B01
:1004900001EA0304019B1B6843EA0404019B1C60FE
:1004A00001F48033B3F5803F15D08401104B1B1944
:1004B0001433029301F400333BB1FC43029B1B68ED
:1004C00003EA0404029B1C6005E0029B1B6843EAEC
:1004D0000704029B1C60761CC3E7DDF800E003B054
:1004E000704700BF009004400000FFFFFFFF0000C6
:0404F00000F00F40C9
:1004100081B040F2FF1100EA01018909084600F2AB
:1004200009024FF0010101FA02F20449096841EAA8
:10043000020202490A6001B0704700BF38800440E0
:1006080081B01849884204D1012252B216490A60C1
:1006180026E01649884204D1012252B214490A60E0
:100628001EE01449884204D1012252B212490A60DC
:1006380016E01249884204D1012252B210490A60D8
:100648000EE01049884204D1012252B20E490A60D4
:1006580006E00E49884203D1012252B20C490A60D1
:1006680001B0704700A00640A806904200B00640BE
:10067800AC06904200C00640B006904200D006404A
:10068800B406904200A00E402805904200B00E40EB
:040698002C0590425B
:1007500085B0CDF800E08046894601AA1046FFF733
:10076000D9FE164A904503D0154A904500D001E0C5
:10077000019800E002984FEA0912B0FBF2F291B240
:1007800092B2130A9BB298F800201A4388F800200E
:1007900008F10103CAB21A7043014FEA0912B3FB10
:1007A000F2F34A0192B29A1AD0B208F10A031A7807
:1007B00002431A70DDF800E005B0704700A0064063
:0407C00000B006403F
:1005140081B0CDF800E00446FFF7EAFF40F2E8318D
:1005240000FB01F3194909680A0F1849096801F029
:100534007061090EC8B21549096801F47001090D0A
:10054400CDB21249096801F47021090CCEB2D1B2BE
:10055400491C09B259430F462360221D411C09B2AC
:10056400B7FBF1F1116004F20802691C09B2B7FB90
:10057400F1F1116004F20C02711C09B2B7FBF1F144
:100584001160DDF800E001B0704700BF4480044012
:0C04F40001480068704700BF7C00FF1F3B
:1006E40081B0841C23784FF6EF7212B203EA02023F
:1006F4002270841C0B0122781A43227001B07047C7
:1006AC0081B001F0020262B1841C01F002032278D5
:1006BC001A432270841C01F0010322781A43227021
:1006CC0007E0841C23784FF6FD7212B203EA020293
:0606DC00227001B070471E
:0C05FC0081B002780A43027001B0704721
:1005EC0081B0C21C117841F00401117001B0704748
:10069C0081B0C21C117841F00801117001B0704793
:100EB00081B0CDF800E00D4D00F20C0109688CB254
:100EC00000F2080109688BB2011D09688AB2016845
:100ED000084691B29AB2A3B220B4FFF73FFE01B028
:100EE0000020DDF800E001B0704700BF781B000073
:100B5C0081B0CDF800E09FB203468DB296B2DDF8BD
:100B6C0004800848FFF738FE4446AAB21946B3B2CF
:100B7C00044810B480B4FFF7D5FE02B0DDF800E0F5
:080B8C0001B0704700D00640E3
:100D8C0081B0CDF800E00D4D00F20C0109688CB279
:100D9C0000F2080109688BB2011D09688AB201686A
:100DAC00084691B29AB2A3B220B4FFF7D1FE01B0BB
:100DBC000020DDF800E001B0704700BF781B000098
:1010340081B0CDF800E011E00846FFF7D7FE16E0D6
:101044000846FFF78FFE12E00846FFF7BDFE0EE0EC
:101054000846FFF7E9FE0AE0012008E00028EBD08B
:101064000128EDD00228EFD01028F1D0F4E7DDF804
:0610740000E001B070472E
:100DF00081B0CDF800E0FFF777FE044A04490A60AD
:100E00000020DDF800E001B0704700BFAD09000030
:040E10007800FF1F48
:100AE80081B0CDF800E003460A48FFF777FE0A4ACE
:100AF80040F2000104B402B440F20002194640F288
:100B080000030448FFF710FF02B0DDF800E001B071
:0C0B1800704700BF00C00640E41B000056
:100D680081B0CDF800E0FFF739FE044A04490A6073
:100D78000020DDF800E001B0704700BF5D0A000008
:040D88007800FF1FD1
:1009E40081B0CDF800E003460A48FFF7F9FE0A4A51
:1009F40040F2000104B402B440F20002194640F28D
:100A040000030448FFF792FF02B0DDF800E001B0F4
:0C0A1400704700BF00D00640781B0000B7
:100DCC0081B0CDF800E0FFF707FE044A04490A6041
:100DDC000020DDF800E001B0704700BF5D0A0000A4
:040DEC007800FF1F6D
:100E2C0081B0CDF800E0FFF7F5FD044A04490A60F3
:100E3C000020DDF800E001B0704700BFC9090000D8
:040E4C007800FF1F0C
:100A200081B0CDF800E003460A48FFF7DBFE0A4A32
:100A300040F2000104B402B440F20002194640F250
:100A400000030448FFF774FF02B0DDF800E001B0D6
:0C0A5000704700BF00A00640501C0000D2
:10107C0083B0CDF800E0024610460D228DF8082012
:10108C000A228DF809201FE0FFF74CFE23E00278BE
:10109C002AB10190FFF746FE0198401CF7E71AE0D1
:1010AC0002782AB10190FFF73DFE0198401CF7E74A
:1010BC0002AA1046FFF736FE0DF109021046FFF7A3
:1010CC0031FE08E0062007E00029DDD00129DED042
:1010DC000229E5D0F6E70020DDF800E003B0704708
:100D300081B0CDF800E00178CCB2A0B2034C2468B9
:100D4000A0470020DDF800E001B070477800FF1FE9
:1009C80081B0CDF800E081B20348FFF7F7FEDDF80B
:0C09D80000E001B0704700BF00A0064026
:1007C40081B0ADF800100146BDF800000A1D137891
:1007D400C3F3C01202B9F9E7CA1D107001B0704723
:1009900081B0CDF800E081B20348FFF713FFDDF826
:0C09A00000E001B0704700BF00B006404E
:1009AC0081B0CDF800E081B20348FFF705FFDDF818
:0C09BC0000E001B0704700BF00C0064022
:100A5C0081B0CDF800E081B20348FFF7ADFEDDF8C0
:0C0A6C0000E001B0704700BF00D0064061
:100AB00081B0CDF800E081B20348FFF783FEDDF896
:0C0AC00000E001B0704700BF00A00E4035
:100ACC0081B0CDF800E081B20348FFF775FEDDF888
:0C0ADC0000E001B0704700BF00B00E4009
:1013FC0081B0CDF800E014491448FFF7E9FD14481A
:10140C00007840F020011248017040F23300FFF7E1
:10141C009BFDFFF7D5FDFFF795FFFFF7A5FFFFF746
:10142C00ADFFCC20FFF752FF4E20FFF74FFF0020FF
:10143C00FFF74CFF0020FFF749FF6020FFF746FF46
:10144C00DDF800E001B07047681D0000BC1C000016
:04145C0003C0064083
:100F540081B0042806D11949096841F4803217493F
:100F64000A6028E0052806D11449096841F40032D2
:100F740012490A601FE0062806D11049096841F4A5
:100F840080220E490A6016E00F2806D10C49096830
:100F940041F002020A490A600DE010280BD3A0F2C6
:100FA400100461098A0007498B1804F01F024FF0EE
:100FB40001019140196001B0704700BF24ED00E0C9
:080FC40010E000E000E100E094
:0E0FCC0081B0EFF3108C604662B601B0704742
:100FDC0081B0CDF800E003460846FFF7EDFD18465A
:0C0FEC00FFF72AFEDDF800E001B07047BE
:100BC400026806490A60011D0A6805490A6000F2C4
:100BD40008010A6803490A60704700BF9000FF1FBC
:080BE4009400FF1F9800FF1FA1
:020C44007047F7
:1013500081B0CDF800E0E320FFF71CFCFFF726FC8E
:10136000FFF724FCC120FFF715FCDDF800E001B019
:021370007047C4
:100B940081B0CDF800E0034C2468A047DDF800E004
:080BA40001B070479000FF1F33
:100BAC0049F63E47C0F2000700BF00BF7F1EFDD1D3
:080BBC0000BF00BF00BF70473D
:1013740081B0CDF800E0E120FFF70AFCDDF800E0E1
:0413840001B07047FD
:1013880041F67E27C0F2060700BF00BF7F1EFDD1D1
:0813980000BF00BF00BF704759
:1012D80081B0CDF800E0FFF759FCDDF800E001B07F
:0212E80070474D
:1014600081B0CDF800E0FFF773FFFFF783FFFFF7D0
:101470008BFFCC20FFF730FF4420FFF72DFF4CF20D
:101480007E37C0F2C91700BF00BF7F1EFDD100BF6D
:1014900000BF00BFFFF75CFFFFF76CFFFFF774FFB3
:1014A000CC20FFF719FFBE20FFF716FFFFF76CFFF8
:1014B00008211E48FFF71AFF1D4800781D4A1080BA
:1014C00010460088010289B211801848007841EA6C
:1014D000000080B2108000EE900AF8EE600A4FF033
:1014E000765000EE100A20EE800A134800ED000A44
:1014F00012480121FFF7C2FD0F4810ED000A104805
:10150000FFF7F4FD02210E48FFF7B8FD45F6FE1780
:10151000C0F2622700BF00BF7F1EFDD100BF00BF29
:1015200000BFDDF800E001B0704700BF1600FF1FEC
:101530001700FF1F3C00FF1F4000FF1F2000FF1F80
:041540004400FF1F45
:1012EC0084B0CDF800E002908DF80C1000228DF83F
:1012FC0004209DF80C309DF804209A421AD2002349
:10130C000E4A1370FF20FFF73FFC0C4A1278012A9B
:10131C0007D19DF80430029AD318094A12781A7032
:10132C0000E0F2E700F02AF89DF80420521C8DF83A
:10133C000420DEE7DDF800E004B070473A00FF1F40
:04134C003B00FF1F44
:1010EC0083B0CDF800E00446002000235BB28DED08
:1010FC00020A0299B1F1FF3F05D170492046FFF772
:10110C00F1FD0320D5E0012502A9C91C097801F0E5
:10111C008001C9B269B102A9CA1C117881F08001A1
:10112C001170691CCAB22D212170641CD7B22646DD
:10113C0001E02646EFB2029929B961493046FFF722
:10114C00D1FD0020B5E00299B1F1FF4F05D15D4909
:10115C003046FFF7C7FDF8B2ABE08DF80430C3B2F0
:10116C0034469DF90400DDED020AB7EE000AF4EEF8
:10117C00C00AF1EE10FA0ADADDED020AB2EE040A48
:10118C0020EE800A8DED020A401E40B2EBE7DDED49
:10119C00020AB2EE040AF4EEC00AF1EE10FA0BDB0E
:1011AC00DDED020A484900EE101A20EE800A8DEDA2
:1011BC00020A401C40B2EAE702994900029102A9D6
:1011CC00C91C09787F39CDB202A9CA1C0121117042
:1011DC000299A940029102A9C91C097830312170E9
:1011EC00621C012803DB062801DC154603E02E21D6
:1011FC001170551C0123062144B2C8B210B302A9C8
:10120C00CA1C0021117002998A0002998918029156
:10121C0002994900029102A9C91C09783031297040
:10122C006D1C63B9611E49B24AB221B92E212970D5
:10123C006D1C012100E0D9B254B2CBB2FFE7401EC5
:10124C00C0B2DBE72A4660B2511E0978302901D1C1
:10125C00521EF9E7511E09782E2901D1521EFFE7C3
:10126C0018B365211170521C002806DA2D2111705B
:10127C00521C414248B243B200E043B2D8B2D9B298
:10128C00092907D90A21B0FBF1F1C9B2303111702B
:10129C00531C00E013460A22B0FBF2F102FB1101D1
:1012AC00C9B230311970581C00E010460021017091
:1012BC000020DDF800E003B0704700BF3000FF1FD6
:0C12CC003400FF1F3600FF1FCDCCCC3DCE
:100CF00081B00091014600980B461C465A1C1546CF
:100D00000346421C10461A78227022780AB12B46FC
:080D1000F3E7084601B070474B
:1016380090B072B6974801909748029097480390E7
:1016480097480490974805909748069097480790C0
:10165800974808909748099097480A9097480B90A0
:1016680097480C90974998480D9098480E900D9877
:1016780000F007000F9001F0010050B94CF2205023
:10168800934908804DF62810088040F2D2119148FD
:1016980001809148007800F0010050B18F4800782F
:1016A80000F0080020B18D49087840F00800087063
:1016B80021E08B48006840F0005189480160894862
:1016C800006800F48070B0B9864801686FF4705003
:1016D80001EA000040F440718248016081480068D6
:1016E80040F480717F4801607E4801686FF40070A3
:1016F80001407C480160AA217B4801700D9800F0E8
:10170800100060B9794801786FF0600001407748AF
:10171800017077480078012800D0FAE71CE00D989E
:1017280000F01000C0B10E997248814208D96021BA
:101738006E4801706E480078802800D0FAE70BE008
:101748006A4801786FF06000014068480170684895
:101758000078012800D0FAE70499674801606748D3
:1017680001686FF440200140029800F440200143D2
:1017780062480160624801686FF440300140039894
:1017880000F4403001435E4801600F9830B10F9873
:10179800012803D00F98022800D061E0019800F0DA
:1017A800800050B9089800F0400028B10B9800F06C
:1017B8000300002800D100E015E05248006840F41A
:1017C80000715048016050480168504801404E4837
:1017D8000160069800F0040028B14D4801684B48A4
:1017E80001404B4801600A994A48017005994A48E6
:1017F8000170059800F0040038B14848007800F0FE
:101808001000002800D1F8E705E04448007800F00F
:10181800100000B1F9E74248007800F0BF01C9B2F2
:10182800069800F0FD0001433D480170079800F05C
:10183800E0013C48007800F01F000143394801707E
:101848000199394801700B99384801700F9802289E
:1018580005D13348007840F0020131480170B8E002
:10186800019800F0800020B90B9800F0030000B147
:1018780065E02448006840F400712248016022486D
:1018880001682248014020480160069800F00400E1
:1018980000F04EB80000000000000C00000001003D
:1018A80000001401220000002400000000000000D5
:1018B80002000000460000000000000000000000D8
:1018C800000000000000000007000000C0D4010074
:1018D8000E2005400020054000F0074002D00740D8
:1018E8003C80044010D0034000E0074001E007407E
:1018F80003E0074080380100448004400070044041
:10190800048004403880044048900440FFF8FFFEFB
:101918004C900440084006400040064006400640FF
:101928000140064003400640005006400C40064077
:1019380028B17A4801687A480140784801600A99D4
:10194800784801707848007800F0BF01C9B206985D
:1019580000F0FD000143744801700199734801705B
:101968000B99734801700F98072805D1059840F026
:1019780080017048017002E005996E480170069870
:1019880000F0040048B10B9800F0030028B96A4839
:10199800007800F0020000B9F9E7059800F00400AB
:1019A80038B16548007800F01000002800D1F8E749
:1019B80005E06148007800F0100000B1F9E70798E9
:1019C80000F0E0015D48007800F01F0001435B482B
:1019D8000170089800F0BF0159480170099800F09B
:1019E800BF0158480170089800F0400028B15448D9
:1019F800007840F04001524801700F98052806D140
:101A08004948007840F00201474801701BE00F98F0
:101A1800062803D00F98072800D014E0494800781A
:101A280040F04001474801704348007800F040000A
:101A380000B9F9E70F98072805D13E48007800F06B
:101A48003F013C4801700F9818B10F98032800D047
:101A58002CE03948007800F00C0000B1F9E73A486A
:101A6800006840F00101384801604FF00001374834
:101A780001604FF08001364801604FF0050135489C
:101A880001604FF00101324801603148006800F000
:101A9800800000B9F9E700212D4801602A48016853
:101AA8006FF001000140284801602AE00F980128E2
:101AB80003D00F98022800D007E01F48007800F0F4
:101AC8000C00042800D0F8E71BE00F98042806D083
:101AD8000F98062803D00F98052800D007E016486D
:101AE800007800F00C00082800D0F8E709E00F980B
:101AF800072806D11048007800F00C000C2800D008
:101B0800F8E7154801686FF00F0001400C9800F0E5
:101B18000F0001431048016010B070474C9004401A
:101B2800FFF8FFFE0840064001400640005006400E
:101B38000C40064000400640064006400340064070
:101B48000440064005400640388004400800044030
:0C1B5800000004400400044048800440E9
:101B640081B002490248016001B07047C0D401004D
:041B74007C00FF1FD3
:0816300081B0FEE701B0704734
:1015CC0081B072B60849086840F47000086000BF2A
:1015DC0000BF00BF00BFF1EE100A40F44000E1EE86
:0C15EC00100A62B601B0704788ED00E004
:101D740000B5DFF814B0DFF814A0DFF814C0FFF7E3
:101D840007FC00BD704700BF0000FF1F3B00FF1FA2
:041D94001C1D000012
:101DF40000B5DFF810B0DFF810A0FFF7A1FB00BDBD
:0C1E0400704700BF0000FF1F9C00FF1F84
:1015F8004DF8044D81B0CDF800E00948007800F0BE
:10160800200000B230B1FFF7B7FF0649087001218A
:10161800FFF7C2FEDDF800E001B05DF8044B70474B
:0816280004C006403E00FF1F54
:1015800081B0CDF800E0FFF7D7FCDDF800E001B056
:021590007047A2
:100F380081B0CDF800E0044C2468A047C0B2DDF8C9
:0C0F480000E001B0704700BF9400FF1FE4
:100C480081B0CDF800E00348FFF71AFFDDF800E0B7
:080C580001B0704700A0064046
:100A880081B0011D0A78C2F3401101B9F9E7C11D0F
:080A98000978C8B201B07047F3
:100C2C0081B0CDF800E00348FFF720FFDDF800E0CD
:080C3C0001B0704700A0064062
:0E0A780081B0011D0978C1F3401001B0704734
:100E800081B0CDF800E00348FFF70AFEDDF800E08E
:080E900001B0704700A006400C
:0E0AA00081B0011D0978C1F3801001B07047CC
:100EF00081B0CDF800E00348FFF7C6FDDDF800E063
:080F000001B0704700B006408B
:100D500081B0CDF800E00348FFF78EFEDDF800E03B
:080D600001B0704700B006402D
:100E140081B0CDF800E00348FFF740FEDDF800E0C4
:080E240001B0704700B0064068
:100E980081B0CDF800E00348FFF7F2FDDDF800E08F
:080EA80001B0704700C00640D4
:100CC00081B0CDF800E00348FFF7D6FEDDF800E084
:080CD00001B0704700C00640AE
:100D180081B0CDF800E00348FFF7BEFEDDF800E043
:080D280001B0704700C0064055
:100C900081B0CDF800E00348FFF7F6FEDDF800E094
:080CA00001B0704700D00640CE
:100CA80081B0CDF800E00348FFF7E2FEDDF800E090
:080CB80001B0704700D00640B6
:100C600081B0CDF800E00348FFF71AFFDDF800E09F
:080C700001B0704700D00640FE
:100C780081B0CDF800E00348FFF702FFDDF800E09F
:080C880001B0704700A00E400E
:100CD80081B0CDF800E00348FFF7CAFEDDF800E078
:080CE80001B0704700A00E40AE
:100E500081B0CDF800E00348FFF722FEDDF800E0A6
:080E600001B0704700A00E4034
:100E680081B0CDF800E00348FFF70AFEDDF800E0A6
:080E780001B0704700B00E400C
:100F080081B0CDF800E00348FFF7B2FDDDF800E05E
:080F180001B0704700B00E406B
:100F200081B0CDF800E00348FFF7BAFDDDF800E03E
:080F300001B0704700B00E4053
:1013A000024A1070024A1170704700BF3B00FF1FD5
:0413B0003A00FF1FE1
:100400000000000000000000FFFFFFFF02FDFFFFF3
:101B78005103000050030000FFFFFFFF00000000BA
:101B8800000000000000000000000000000000004D
:101B9800000000000000000000000000000000003D
:101BA800000000000000080000000800FFFFFFFF21
:101BB800000000000000000000000000000000001D
:101BC800000000000000000000000000000000000D
:0C1BD80000000000000000000000000001
:101BE4006303000062030000FFFFFFFF000000002A
:101BF40000000000000000000000000000000000E1
:101C040000000000000000000000000000000000D0
:101C1400000000000000080000000800FFFFFFFFB4
:101C240000000000000000000000000000000000B0
:101C340000000000000000000000000000000000A0
:0C1C440000000000000000000000000094
:101C50003103000030030000FFFFFFFF0000000021
:101C60000000000000000000000000000000000074
:101C70000000000000000000000000000000000064
:101C8000000000000000080000000800FFFFFFFF48
:101C90000000000000000000000000000000000044
:101CA0000000000000000000000000000000000034
:0C1CB00000000000000000000000000028
:101CBC00FFFFFFFFFFFFFFFFFFFFFFFFFFFFFFFF28
:101CCC00FFFFFFFFFFFFFFFFFFFFFFFFFFFFFFFF18
:101CDC00FFFFFFFFFFFFFFFFFFFFFFFFFFFFFFFF08
:101CEC00FFFFFFFFFFFFFFFFFFFFFFFFFFFFFFFFF8
:101CFC00FFFFFFFFFFFFFFFFFFFFFFFFFFFFFFFFE8
:101D0C00FFFFFFFFFFFFFFFFFFFFFFFFFFFFFFFFD7
:101D1C00202D2D2D2053797374656D20696E697497
:061D2C00202D2D2D2000EA
:0A1D320000000000000000000000A7
:101D3C002054656D7065726174757265203A20006F
:041D4C004E614E0096
:021D5000300061
:041D5200494E4600B0
:011D5600008C
:101D580080250000000000000000000000000000D6
:0C1D6800AD090000990E0000C10C000045
:00000001FF
