:0400000097EF0CF07A
:020006001200E6
:1000080000C017F001C016F002C015F09EAA0BD070
:10001800B5EC0BF000C08DF000C0C2F0010E00017D
:10002800C36FB7EC0BF017C000F016C001F015C095
:0400380002F01100C1
:0E003C000001C1B102D08B9401D08B84120060
:0E004A000001C1B102D08A9201D08A82120058
:0E0058000001C1B102D08B9E01D08B8E120030
:0E0066000001C1B102D08B9A01D08B8A12002A
:0E0074000001C1B102D08D9201D08D82120028
:0E0082000001C1B102D08B9601D08B86120016
:0E0090000001C1B102D08B9801D08B88120004
:0E009E000001C1B102D08B9C01D08B8C1200EE
:0E00AC000001C1B102D08D9401D08D841200EC
:0E00BA000001C1B102D08B9601D08B861200DE
:0E00C8000001C1B102D08B9801D08B881200CC
:0E00D6000001C1B102D08D9601D08D861200BE
:0E00E4000001C1B102D08B9601D08B861200B4
:0E00F2000001C1B102D08B9801D08B881200A2
:0E0100000001C1B102D0899401D0898412009F
:0E010E000001C1B102D0899801D08988120089
:0E011C000001C1B102D08D9001D08D80120083
:0E012A000001C1B102D08B9601D08B8612006D
:0E0138000001C1B102D08B9801D08B8812005B
:0E0146000001C1B102D08B9001D08B8012005D
:0E015400ACB202D00000FCD7C1C0ADFF12005B
:100162000F0121B302D00000FBD7C1C01CFF120057
:0E0172000001C1B102D0899001D08980120035
:0E0180000001C1B102D08B9A01D08B8A12000F
:0E018E000001C1B102D08B9601D08B86120009
:0E019C000001C1B102D08B9801D08B881200F7
:0E01AA000001C1B102D0899201D089821200F9
:0E01B8000001C1B102D08B9C01D08B8C1200D3
:0E01C6000001C1B102D08B9201D08B821200D9
:0E01D4000001C1B102D08A9001D08A801200D1
:0E01E2000001C1B102D08B9E01D08B8E1200A5
:0E01F0000001C1B102D08F9201D08F821200A7
:0E01FE000001C1B102D08B9601D08B86120099
:0E020C000001C1B102D08B9801D08B88120086
:0E021A000001C1B102D08F9401D08F84120078
:0E0228000001C1B102D08B9A01D08B8A120066
:0E0236000001C1B102D08F9001D08F80120064
:0E0244000001C1B102D08A9401D08A84120058
:0A025200000E9EBA010E006E1200AD
:0A025C00000EACB2010E006E12009D
:0A026600000E81B2010E006E1200BE
:10027000AECF01F0ABA202D0AB98AB8801C000F0CA
:0202800012006A
:0A028200000E84B0010E006E1200A1
:0A028C00000E80B0010E006E12009B
:100296001DCF01F00F0122A302D02299228901C0AD
:0402A60000F0120052
:0A02AA00000EA4BA010E006E12004F
:0A02B400000E84B6010E006E120069
:0A02BE00000E80B4010E006E120065
:0A02C800000E82B8010E006E120055
:0A02D200000E86B4010E006E12004B
:0A02DC00000E82BC010E006E12003D
:0A02E600000E82BE010E006E120031
:0A02F000000E82B8010E006E12002D
:0A02FA00000E82B6010E006E120025
:0A030400000E82B8010E006E120018
:0A030E00000E82B6010E006E120010
:0A031800000E82B6010E006E120006
:0A032200000E80B8010E006E1200FC
:0A032C00000E82B8010E006E1200F0
:0A033600000E82BA010E006E1200E4
:0A034000000E82B4010E006E1200E0
:0A034A00000E84B2010E006E1200D6
:0A035400000E82B8010E006E1200C8
:0A035E00000E80B2010E006E1200C6
:0A036800000E82BA010E006E1200B2
:0C037200000E0F0121B3010E006E1200FE
:0A037E00000E82B6010E006E1200A0
:0A038800000E82BE010E006E12008E
:0A039200000E82BC010E006E120086
:0A039C00000E82B2010E006E120086
:0A03A600000E81B0010E006E12007F
:0A03B000000E84B4010E006E12006E
:1003BA00F250026EF29E0500FF6A0150FE6E005076
:0803CA00FD6E02BEF28E12006E
:1003D200620E0001956F010E966FC10E976F000EAF
:1003E200986F960EA56F020EA66F000EA76F000EF5
:1003F200A86FAA0EA96F020EAA6F000EAB6F000EB5
:10040200AC6F720EA16F030EA26F000EA36F000EEF
:10041200A46F0F01218B900E226F98849892A4AA48
:0A04220003D01DCF00F0FBD712003D
:10042C000B820BAE20EF02F00368026801680068D3
:08043C000A360232FF0E120025
:10044400540E0001956F010E966FC10E976F000E4A
:10045400986F700EA56F020EA66F000EA76F000EA8
:10046400A86F520EA96F020EAA6F000EAB6F000E9A
:10047400AC6F5C0EA16F020EA26F000EA36F000E94
:10048400A46FAC8A900EAB6E948E949C9EAA03D0FB
:08049400AECF00F0FBD712000F
:0E049C00026A016A006A086A036A000E120012
:1004AA000B840BAE60EF02F0010E036E026A016A62
:0A04BA00006A0A360232FF0E12003B
:0804C4000AAE029E000E1200B8
:0A04CC00000E82B6010E006E120051
:0A04D600000E82BA010E006E120043
:0A04E000000E82B0010E006E120043
:0A04EA00000E86B0010E006E120035
:0A04F400000E86B2010E006E120029
:0A04FE00000E82B6010E006E12001F
:0A050800000E82B8010E006E120012
:0A051200000E81B4010E006E12000D
:10051C0021D0CF0EAF6EAC948FDF6BD0670EAF6E69
:10052C00AC948ADF66D0CF0EAF6EAC8485DF61D021
:10053C00670EAF6EAC8480DF5CD0440EAF6EAC84C3
:10054C007BDF57D0220EAF6EAC8476DF52D0060E16
:10055C00006E58D00001000E006EBE1908E100506C
:10056C00BD1905E1120EBC1902E1BB51C00AD1E064
:10057C00000E006EBE1908E10050BD1905E1250EF4
:10058C00BC1902E1BB51800AC9E0000E006EBE1915
:10059C0008E10050BD1905E14B0EBC1902E1BB513D
:1005AC00000AC1E0000E006EBE1908E10050BD1932
:1005BC0005E1960EBC1902E1BB51000AB9E0000E30
:1005CC00006EBE1908E10050BD1905E1E10EBC1921
:1005DC0002E1BB51000AB1E0BE51000A08E1BD5175
:1005EC00010A05E1BC51C20A02E1BB51000AAAE0B2
:1005FC00AED7540E916F010E926FC10E936F000E19
:06060C00946F006A120069
:10061200BBC0F6FFBCC0F7FFBDC0F8FF0900F5CFB5
:1006220099F00900F5CF9AF00900F5CF9BF0090087
:10063200F5CF9CF0040E0001BB25F66E000EBC2126
:10064200F76E000EBD21F86E0900F5CF9DF009008E
:10065200F5CF9EF00900F5CF9FF00900F5CFA0F08D
:10066200080EBB25F66E000EBC21F76E000EBD21F2
:10067200F86E0900F5CF89F00900F5CF8AF009007C
:0C068200F5CF8BF00900F5CF8CF01200D2
:10068E0021D0CF0EAF6EAC94D6DE6BD0670EAF6EB0
:10069E00AC94D1DE66D0CF0EAF6EAC84CCDE61D022
:1006AE00670EAF6EAC84C7DE5CD0440EAF6EAC840A
:1006BE00C2DE57D0220EAF6EAC84BDDE52D0060E17
:1006CE00006E58D00001000E006EBE1908E10050F9
:1006DE00BD1905E1120EBC1902E1BB51C00AD1E0F1
:1006EE00000E006EBE1908E10050BD1905E1250E81
:1006FE00BC1902E1BB51800AC9E0000E006EBE19A2
:10070E0008E10050BD1905E14B0EBC1902E1BB51C9
:10071E00000AC1E0000E006EBE1908E10050BD19BE
:10072E0005E1960EBC1902E1BB51000AB9E0000EBC
:10073E00006EBE1908E10050BD1905E1E10EBC19AD
:10074E0002E1BB51000AB1E0BE51000A08E1BD5101
:10075E00010A05E1BC51C20A02E1BB51000AAAE03E
:10076E00AED7540E916F010E926FC10E936F000EA5
:06077E00946F006A1200F6
:06078400050E006E1200DC
:10078A00150E0C6EC60E0D6E0D2EFED70C2EFCD756
:04079A000000120049
:10079E00BBC0BEF0BCC0BFF0BDC0C0F021D0CF0EFC
:1007AE00AF6EAC9448DED9D0670EAF6EAC9443DE1C
:1007BE00D4D0CF0EAF6EAC843EDECFD0670EAF6E10
:1007CE00AC8439DECAD0440EAF6EAC8434DEC5D0F4
:1007DE00220EAF6EAC842FDEC0D0050E006EBFD0E1
:1007EE00BEC0F6FFBFC0F7FFC0C0F8FF0900F5CFCF
:1007FE0001F00900F5CF02F00900F5CF03F0090072
:10080E00F5CF04F0000E006E041808E10050031836
:10081E0005E1120E021802E10150C00AC0E0BEC08E
:10082E00F6FFBFC0F7FFC0C0F8FF0900F5CF01F01B
:10083E000900F5CF02F00900F5CF03F00900F5CF5E
:10084E0004F0000E006E041808E10050031805E1D4
:10085E00250E021802E10150800AA6E0BEC0F6FF86
:10086E00BFC0F7FFC0C0F8FF0900F5CF01F00900C7
:10087E00F5CF02F00900F5CF03F00900F5CF04F033
:10088E00000E006E041808E10050031805E14B0E2F
:10089E00021802E10150000A8CE0BEC0F6FFBFC094
:1008AE00F7FFC0C0F8FF0900F5CF01F00900F5CF42
:1008BE0002F00900F5CF03F00900F5CF04F0000EA9
:1008CE00006E041808E10050031805E1960E021898
:1008DE0002E10150000AD8B471D7BEC0F6FFBFC006
:1008EE00F7FFC0C0F8FF0900F5CF01F00900F5CF02
:1008FE0002F00900F5CF03F00900F5CF04F0000E69
:10090E00006E041808E10050031805E1E10E02180C
:10091E0002E10150000AD8B456D7BEC0F6FFBFC0E0
:10092E00F7FFC0C0F8FF0900F5CF01F00900F5CFC1
:10093E0002F00900F5CF03F00900F5CF04F00450E2
:10094E00000A08E10350010A05E10250C20A02E161
:10095E000150000AD8B43CD740D7000E006E1200EA
:10096E000A6A0350D8A40A800750D8A40A820A50F3
:10097E00D8B41AEF05F0030AD8B4D3EF04F00AB0D6
:10098E00CEEF04F006AE18EF05F016EF05F002AE4E
:10099E0016EF05F018EF05F00250800B0A6E029E5E
:1009AE000650800B069E0A18D8B4E4EF04F00A50E5
:1009BE00D8B416EF05F018EF05F00750035CD8B465
:1009CE00EEEF04F0D8A00AEF05F010EF05F0065098
:1009DE00025CD8B4F8EF04F0D8A00AEF05F010EFDF
:1009EE0005F00550015CD8B402EF05F0D8A00AEF6F
:1009FE0005F010EF05F00450005CD8B41AEF05F0C6
:100A0E00D8B010EF05F00A52D8B418EF05F016EF73
:100A1E0005F00A52D8B416EF05F018EF05F0D8809D
:0E0A2E001200D8901200D880D8841200120056
:100A3C0093C0E1FF94C0E2FFBBC0E9FFBCC0EAFF7A
:100A4C00EECFE6FF91C000F092C001F0B0DC006A7E
:020A5C00120086
:100A5E0038D00F0120870D0E1F6F040E1E6F2185DB
:100A6E00B1DC7ED00F012087060E1F6F820E1E6F27
:100A7E002185A8DC75D00F012087030E1F6F400E55
:100A8E001E6F21859FDC6CD00F012087010E1F6F1A
:100A9E00A00E1E6F218596DC63D00F012087010EFC
:100AAE001F6F150E1E6F21858DDC5AD00F0120870A
:100ABE001F6B8A0E1E6F218585DC52D0060E006ECE
:100ACE0059D0000E006E0001BE1908E10050BD198C
:100ADE0005E1120EBC1902E1BB51C00ABAE0000ECC
:100AEE00006EBE1908E10050BD1905E1250EBC19B6
:100AFE0002E1BB51800AB6E0000E006EBE1908E19D
:100B0E000050BD1905E14B0EBC1902E1BB51000AA4
:100B1E00B2E0000E006EBE1908E10050BD1905E1ED
:100B2E00960EBC1902E1BB51000AAEE0000E006E3B
:100B3E00BE1908E10050BD1905E1E10EBC1902E134
:100B4E00BB51000AAAE0BE51000A08E1BD51010ADC
:100B5E0005E1BC51C20A02E1BB51000AA7E0AED7C3
:100B6E000001620E916F010E926FC10E936F000E17
:060B7E00946F006A1200F2
:100B8400086A096A000E0762036447EF06F0025020
:100B940006180A6E075003267E0ED8A0D8EF05F07B
:100BA400035ED8B04BEF06F0DCEF05F0035ED8A08F
:100BB40050EF06F0028E068E02C00EF001C00BF05C
:100BC40000C00DF000500402F4CF0CF001500502F7
:100BD400F4CF00F0F3CF08F00402F3500C26F450E5
:100BE4000822000E00220D500502F3500C26F4508A
:100BF4000822000E002202500402F3500826F4508A
:100C0400002202500502016A000E0122F350002660
:100C1400F45001220D500602F3500826F45000222D
:100C2400026A000E012202220B500602F350002633
:100C3400F4500122000E02220E500602F350012647
:100C4400F450022202BE2FEF06F0083600360136B9
:100C540002360306D8B450EF06F042EF06F0D8800F
:100C6400800E08640030000E002201220222D8A067
:100C740042EF06F0023201320032034A4BEF06F033
:100C84000AAE029E000E52EF06F0010E05DC52EF92
:100C940006F0020E16EC02F052EF06F0040E03DC2E
:020CA40012003C
:100CA600BBC0BEF0BCC0BFF0BDC0C0F027D0CF0EE9
:100CB600AF6EAC9422EC02F0DED0670EAF6EAC9451
:100CC60022EC02F0D8D0CF0EAF6EAC8422EC02F04C
:100CD600D2D0670EAF6EAC8422EC02F0CCD0440EBC
:100CE600AF6EAC8422EC02F0C6D0220EAF6EAC849E
:100CF60022EC02F0C0D0050E006EBFD0BEC0F6FFDB
:100D0600BFC0F7FFC0C0F8FF0900F5CF01F009002A
:100D1600F5CF02F00900F5CF03F00900F5CF04F096
:100D2600000E006E041808E10050031805E1120ECB
:100D3600021802E10150C00ABAE0BEC0F6FFBFC009
:100D4600F7FFC0C0F8FF0900F5CF01F00900F5CFA5
:100D560002F00900F5CF03F00900F5CF04F0000E0C
:100D6600006E041808E10050031805E1250E02186C
:100D760002E10150800AA1E0BEC0F6FFBFC0F7FF46
:100D8600C0C0F8FF0900F5CF01F00900F5CF02F069
:100D96000900F5CF03F00900F5CF04F0000E006E50
:100DA600041808E10050031805E14B0E021802E191
:100DB6000150000A88E0BEC0F6FFBFC0F7FFC0C002
:100DC600F8FF0900F5CF01F00900F5CF02F00900A0
:100DD600F5CF03F00900F5CF04F0000E006E0418FD
:100DE60008E10050031805E1960E021802E10150D1
:100DF600000AD8B46ED7BEC0F6FFBFC0F7FFC0C0AA
:100E0600F8FF0900F5CF01F00900F5CF02F009005F
:100E1600F5CF03F00900F5CF04F0000E006E0418BC
:100E260008E10050031805E1E10E021802E1015045
:100E3600000AD8B454D7BEC0F6FFBFC0F7FFC0C083
:100E4600F8FF0900F5CF01F00900F5CF02F009001F
:100E5600F5CF03F00900F5CF04F00450000A08E1CD
:100E66000350010A05E10250C20A02E10150000ADC
:0C0E7600D8B43BD740D7000E006E12002D
:100E8200D00E0C6EC90E0D6E0D2EFED70C2EFCD799
:060E920000000000120048
:100E98000C6A0E6A0250D8A465EF07F001C002F090
:100EA80000C001F0006A0E860250D8A465EF07F072
:100EB80001C002F0016A0E960E880250D8B477EF8E
:100EC80007F00E50035ED8A4D8A07DEF07F0D890A5
:100ED80002BE83EF07F0003601360236032E6CEFB0
:100EE80007F07DEF07F0010E0C6E4EEC02F087EF75
:100EF80007F0020E0C6E55EC02F087EF07F0040EB7
:080F08000C6E62EC02F0120015
:100F10009BC0E1FF9CC0E2FFBBC0E6FF99C000F0B0
:0A0F20009AC001F0DDEC01F01200B0
:100F2A000D6A086A0050D8B4000C04180A6E0ABE8A
:100F3A000D1E0B6A04AE02D0041E042A00AE02D0B3
:100F4A00001E002A005004100A6E0ABE1FD0045068
:100F5A00085E003600340836045008260036060EAD
:100F6A000C6E00340836045000B0085E00A0082653
:100F7A0000360C2EF6D700A008260BB015D00DAE01
:100F8A00000C001E002A081E082A000C04AE09D014
:100F9A0000BE04D00050086E006AF1D7006A002A29
:100FAA00000C001E0B2AD3D7082A0450085CD8A4C8
:0E0FBA00E6D7086A002A00AEE2D7FF0C12004C
:100FC800BBC004F0BCC005F004C002F005C003F0CB
:100FD800044A052ABDC000F0BEC001F00001BD4BA7
:100FE800BE2B00C0E9FF01C0EAFF02C0E1FF03C059
:100FF800E2FFEECFE6FF02C0E9FF03C0EAFFEE52D0
:0E10080001E0E2D7BBC000F0BCC001F0120056
:1010160027D0CF0EAF6EAC9422EC02F070D0670EE4
:10102600AF6EAC9422EC02F06AD0CF0EAF6EAC84F9
:1010360022EC02F064D0670EAF6EAC8422EC02F0B4
:101046005ED0440EAF6EAC8422EC02F058D0220E75
:10105600AF6EAC8422EC02F052D0060E006E58D071
:101066000001000E006EBE1908E10050BD1905E131
:10107600120EBC1902E1BB51C00ACBE0000E006E95
:10108600BE1908E10050BD1905E1250EBC1902E1A3
:10109600BB51800AC4E0000E006EBE1908E1005084
:1010A600BD1905E14B0EBC1902E1BB51000ABDE0BA
:1010B600000E006EBE1908E10050BD1905E1960E3E
:1010C600BC1902E1BB51000AB6E0000E006EBE1963
:1010D60008E10050BD1905E1E10EBC1902E1BB5162
:1010E600000AAFE0BE51000A08E1BD51010A05E160
:1010F600BC51C20A02E1BB51000AA9E0AED7540EA8
:10110600916F010E926FC10E936F000E946F006A7D
:021116001200C5
:101118002DD0AEC0BBF0AFC0BCF0B0C0BDF0B1C008
:10112800BEF08EEC02F030D0AEC0BBF0AFC0BCF069
:10113800B0C0BDF0B1C0BEF047EC03F025D0AEC0E2
:10114800BBF0AFC0BCF0B0C0BDF0B1C0BEF083DC36
:101158001BD0AEC0BBF0AFC0BCF0B0C0BDF0B1C0DA
:10116800BEF055DF11D0010E006E0ED00001AD515A
:10117800000ACFE0AD51010AD7E0AD51020ADFE025
:0A118800AD51100AE6E0EFD71200A7
:101192001DD0AEC0BBF0AFC0BCF0B0C0BDF082DDB0
:1011A20020D0AEC0BBF0AFC0BCF0B0C0BDF0CFEC41
:1011B20003F017D0AEC0BBF0AFC0BCF0B0C0BDF002
:1011C200C2EC03F00ED0010E006E0BD00001AD5147
:1011D200000ADFE0AD51010AE4E0AD51020AEAE0A3
:0411E200F2D712002E
:1011E6000001B06BAF51B05D16E2286AFF0EBB6F0F
:1011F6008CDE2850010A0AE10001B051AD25E16EEE
:10120600000EAE21E26E8EC0E6FF01D0F2D70001DD
:0812160035DEB02BE7D7120012
:0A121E00E10E0001BB6F75DE120047
:10122800ADC0B0F0AEC0B1F00D0E0001B26F0A0E45
:10123800B36F3AD0B0C0BBF0B1C0BCF01EEC05F043
:101248003ED0B0C0E9FFB1C0EAFFEE520AE0B0C03C
:10125800BBF0B1C0BCF01EEC05F00001B04BB12BE7
:10126800F0D72DD0B0C0E9FFB1C0EAFFEE520AE0D6
:10127800B0C0BBF0B1C0BCF01EEC05F00001B04B33
:10128800B12BF0D70001B20EBB6F000EBC6F1EEC85
:1012980005F0B30E0001BB6F000EBC6F1EEC05F02D
:1012A8000ED0060E006E0CD00001AF51000AC2E04D
:1012B800AF51010AC6E0AF51020AD4E0F2D7006A82
:0212C800120012
:1012CA00E30E0001BB6F1FDEC5EC03F0C5EC03F0B3
:0A12DA00C10E0001BB6F17DE120009
:1012E400B0C0BBF0B1C0BCF0B2C0BDF009EC03F0BB
:1012F400ADC0BBF0AEC0BCF0AFC0BDF003EC00F0BD
:021304001200D5
:101306000050086E0150006E016A026A036A0B6A99
:101316000C6A960E036E0A6A00C001F008C000F05F
:08132600086A026AB6DD12003C
:10132E000001B96BBA6BADC0B5F0AEC0B6F0AFC0D0
:10133E00B7F0B0C0B8F0B851FF0A08E1B751FF0AD4
:10134E0005E1B651FF0A02E1B551FF0A0CE1B1C049
:10135E00BBF0B2C0BCF0490EBD6F000EBE6F2DDEED
:10136E00030E006EEED1010EB36FB7AF0ED0800E2E
:10137E00B719006E00C0B7F0B32BB1C0E1FFB2C019
:10138E00E2FF2D0EE66EB14BB22B000E006EB819B9
:10139E0008E10050B71905E10050B61902E1B55148
:1013AE00000A0BE1B1C0BBF0B2C0BCF0510EBD6F74
:1013BE00000EBE6F02DE006AC4D1B851FF0A08E10A
:1013CE00B751000A05E1B651000A02E1B551000A13
:1013DE000CE1B1C0BBF0B2C0BCF04D0EBD6F000E43
:1013EE00BE6FEBDDB3C000F0ACD1000E046E000E8C
:1013FE00056E000E066E7F0E076EB5C000F0B6C00D
:10140E0001F0B7C002F0B8C003F0B7EC04F0010E63
:10141E00D8B0000E006E00521CE0B5C000F0B6C091
:10142E0001F0B7C002F0B8C003F0000E046E000E5B
:10143E00056E200E066E820E076EC2EC05F000C021
:10144E00B5F001C0B6F002C0B7F003C0B8F0BA07ED
:10145E00CCD7000E046E000E056E200E066E820EA8
:10146E00076EB5C000F0B6C001F0B7C002F0B8C04C
:10147E0003F0B7EC04F0000ED8B0010E006E00526F
:10148E001CE0B5C000F0B6C001F0B7C002F0B8C0A5
:10149E0003F0CD0E046ECC0E056E4C0E066E7B0E5A
:1014AE00076EC2EC05F000C0B5F001C0B6F002C088
:1014BE00B7F003C0B8F0BA2BCCD7FF0EB515086E37
:1014CE00FF0EB615096E7F0EB7150A6E000EB81513
:1014DE000B6E08C004F009C005F00AC006F00BC080
:1014EE0007F004360490053606360736000EB5159D
:1014FE00006E000EB615016E000EB715026EFF0ED1
:10150E00B815036E00C0B5F001C0B6F002C0B7F05A
:10151E0003C0B8F00450B511006E0550B611016E3F
:10152E000650B711026E0750B811036E00C0B5F029
:10153E0001C0B6F002C0B7F003C0B8F07F0EB85DC0
:10154E00006E00C0B4F0010EB86F00C004F0B5C05C
:10155E0000F0B6C001F0B7C002F0B8C003F00450FE
:10156E0007E000360090013602360336FF0FF8D73B
:10157E0000C0B5F001C0B6F002C0B7F003C0B8F0BD
:10158E00B1C0E1FFB2C0E2FFB851300FE66EB14B11
:10159E00B22B800EBA19006E800E010A005C08E3B1
:1015AE00800E060A006E800EBA19005C01E30AD0A6
:1015BE00B1C0E1FFB2C0E2FF2E0EE66EB14BB22B10
:1015CE00010EB96F060EB46FB451000A54E0B86B39
:1015DE00B5C000F0B6C001F0B7C002F0B8C003F05D
:1015EE000036009001360236033600360090013682
:1015FE0002360336B5510026B6510122B7510222EA
:10160E00B851032200C0B5F001C0B6F002C0B7F069
:10161E0003C0B8F0B5C000F0B6C001F0B7C002F01C
:10162E00B8C003F00036009001360236033600C013
:10163E00B5F001C0B6F002C0B7F003C0B8F0B1C04B
:10164E00E1FFB2C0E2FFB851300FE66EB14BB22BE4
:10165E00B951000A0EE1BA07BA51000A0AE1B1C047
:10166E00E1FFB2C0E2FF2E0EE66EB14BB22B010EC1
:10167E00B96FB407A9D7FF0EB125E96EFF0EB221DF
:10168E00EA6EEE50300A05E1010EB15F000EB25B5C
:10169E00F2D7FF0EB125E96EFF0EB221EA6EEE50C3
:1016AE002E0A04E1010EB15F000EB25BBA51000AC0
:1016BE0042E0B1C0E1FFB2C0E2FF650EE66EB14B93
:1016CE00B22B800EBA19006E800E000A005C0BE27F
:1016DE00B1C0E1FFB2C0E2FF2D0EE66EB14BB22BF0
:1016EE00BA510008BA6FBAC0B4F0800E090A006E83
:1016FE00800EBA19005C0EE20A0E046EB4C000F041
:10170E000DDCB1C0E1FFB2C0E2FF0050300FE66E5B
:10171E00B14BB22B0A0E046EB4C000F095EC07F07C
:10172E0008C000F0B1C0E1FFB2C0E2FF0050300FC0
:10173E00E66EB14BB22BB1C0E1FFB2C0E2FFE66A7A
:04174E00006A12001B
:0E1752009DC000F09EC001F0DDEC01F0120021
:0A176000ADC0BBF088EC07F01200EA
:04176A00F3DF120097
:0A176E00C2C08EF0C3C028F01200C4
:101778000900F5CFE6FF0006FBE10106F9E11200DA
:10178800A0DD49DD41EC07F0CC0E0001AD6FE4DFD0
:10179800440E0001AD6FE0DF3D0E0B6EE10E0C6EE6
:1017A8003F0E0D6E0D2EFED70C2EFCD70B2EFAD742
:1017B8000000000086DD2FDD41EC07F0CC0E0001B3
:1017C800AD6FCADFBE0E0001AD6FC6DF41EC07F09A
:1017D8003F0E0001AD6F000EAE6F080EAF6FFFDC5D
:1017E80040C08FF0000E906F8FC001F0006A00C0FB
:1017F8008FF001C090F03F500012000E011200C09F
:101808008FF001C090F07BDD000E046E000E056EB7
:10181800000E066E7B0E076EC2EC05F000C053F09A
:1018280001C054F002C055F003C056F0180EAD6F59
:10183800000EAE6F010EAF6FF3DC53C0ADF054C0B5
:10184800AEF055C0AFF056C0B0F0570E0001B16F02
:10185800000EB26F68DD570EAD6F000EAE6F020E50
:10186800AF6FDEDC520E0B6E2B0E0C6E000E0D6E83
:101878000D2EFED70C2EFCD70B2EFAD70000120027
:101888003C0E0001AD6F190EAE6F000EAF6FD70E94
:10189800B06F190EB16F000EB26F20DD9D8A9E9A4F
:1018A800F28CF28E0EDDB7DC41EC07F0CC0E0001B5
:1018B800AD6F52DF4E0E0001AD6F4EDF0001AD6B14
:1018C8004BDF0001AD6B48DF600E0001AD6F44DFF8
:0218D8001200FC
:1018DA000001AD6BE30EAE6F190EAF6F000EB06F65
:1018EA0053DC020E0001AD6F800EAE6F250EAF6F96
:1018FA00000EB06FB16F0BDC290E0001AD6F000E48
:10190A00AE6F020EAF6F8BDC090E0B6E1E0E0C6EE5
:10191A00E40E0D6E0D2EFED70C2EFCD70B2EFAD729
:04192A0000001200A7
:0E192E00F4EC0CF0D3DFA9DF28DFFED7FFD7E3
:1019E80010EE18F03B0E006E010E016E9C0EF66EA6
:0E19F800190EF76E000EF86EBCEC0BF012002C
:10193C007201C1004601C1001C01C1002A01C10095
:10194C003801C1008001C100C601C100D401C10031
:10195C00E201C100B801C1008E01C1009C01C100AF
:10196C008C020000E0040000820200007E030000F4
:10197C0004030000680300009C030000A6030000A1
:10198C008803000092030000180300002C030000E1
:10199C002054656D7065726174757265203A200013
:0119AC00003A
:1019AD00202D2D2D2053797374656D20696E69740A
:0619BD00202D2D2D20005D
:0A19C300000000000000000000001A
:0419CD004E614E0019
:0419D100494E460035
:0219D5003000E0
:0C19D7005401C100700200005202000028
:0419E300802500005B
:020000040030CA
:0E00000015137F7CF98B91FFFFC0FFE0FF40DE
:00000001FF
